{
  "address": "0xA98e59cD4e1467C74A6f4ea96F45054CCc7d82eE",
  "abi": [
    {
      "inputs": [
        {
          "internalType": "address",
          "name": "keyGenerator",
          "type": "address"
        },
        {
          "internalType": "address",
          "name": "depositAddress",
          "type": "address"
        },
        {
          "internalType": "address",
          "name": "withdrawal",
          "type": "address"
        },
        {
          "internalType": "address",
          "name": "ssv_contract",
          "type": "address"
        },
        {
          "internalType": "address",
          "name": "ssv_token",
          "type": "address"
        },
        {
          "internalType": "uint32[4]",
          "name": "ids",
          "type": "uint32[4]"
        }
      ],
      "stateMutability": "nonpayable",
      "type": "constructor"
    },
    {
      "inputs": [
        {
          "internalType": "uint256",
          "name": "valueSent",
          "type": "uint256"
        }
      ],
      "name": "StakingPool__CantStakeZeroAmount",
      "type": "error"
    },
    {
      "inputs": [
        {
          "internalType": "address",
          "name": "caller",
          "type": "address"
        },
        {
          "internalType": "address",
          "name": "whitelistedAddress",
          "type": "address"
        }
      ],
      "name": "StakingPool__OnlyWhitelistAddress",
      "type": "error"
    },
    {
      "anonymous": false,
      "inputs": [
        {
          "indexed": false,
          "internalType": "bytes",
          "name": "pubkey",
          "type": "bytes"
        },
        {
          "indexed": false,
          "internalType": "bytes",
          "name": "sharesPublicKeys",
          "type": "bytes"
        },
        {
          "indexed": false,
          "internalType": "uint256",
          "name": "amount",
          "type": "uint256"
        }
      ],
      "name": "KeySharesDeposited",
      "type": "event"
    },
    {
      "anonymous": false,
      "inputs": [
        {
          "indexed": false,
          "internalType": "uint32[4]",
          "name": "newOperators",
          "type": "uint32[4]"
        }
      ],
      "name": "OperatorIDsChanged",
      "type": "event"
    },
    {
      "anonymous": false,
      "inputs": [
        {
          "indexed": true,
          "internalType": "address",
          "name": "previousOwner",
          "type": "address"
        },
        {
          "indexed": true,
          "internalType": "address",
          "name": "newOwner",
          "type": "address"
        }
      ],
      "name": "OwnershipTransferred",
      "type": "event"
    },
    {
      "anonymous": false,
      "inputs": [
        {
          "indexed": false,
          "internalType": "bytes",
          "name": "pubkey",
          "type": "bytes"
        }
      ],
      "name": "PubKeyDeposited",
      "type": "event"
    },
    {
      "anonymous": false,
      "inputs": [
        {
          "indexed": false,
          "internalType": "uint256",
          "name": "newPrice",
          "type": "uint256"
        }
      ],
      "name": "SharePriceUpdated",
      "type": "event"
    },
    {
      "anonymous": false,
      "inputs": [
        {
          "indexed": false,
          "internalType": "address",
          "name": "user_address",
          "type": "address"
        },
        {
          "indexed": false,
          "internalType": "uint256",
          "name": "amount",
          "type": "uint256"
        }
      ],
      "name": "UserStaked",
      "type": "event"
    },
    {
      "inputs": [],
      "name": "SSV_CONTRACT_ADDR",
      "outputs": [
        {
          "internalType": "address",
          "name": "",
          "type": "address"
        }
      ],
      "stateMutability": "view",
      "type": "function"
    },
    {
      "inputs": [],
      "name": "SSV_TOKEN_ADDR",
      "outputs": [
        {
          "internalType": "address",
          "name": "",
          "type": "address"
        }
      ],
      "stateMutability": "view",
      "type": "function"
    },
    {
      "inputs": [],
      "name": "VALIDATOR_AMOUNT",
      "outputs": [
        {
          "internalType": "uint256",
          "name": "",
          "type": "uint256"
        }
      ],
      "stateMutability": "view",
      "type": "function"
    },
    {
      "inputs": [
        {
          "internalType": "uint256",
          "name": "",
          "type": "uint256"
        }
      ],
      "name": "Validators",
      "outputs": [
        {
          "internalType": "bytes",
          "name": "",
          "type": "bytes"
        }
      ],
      "stateMutability": "view",
      "type": "function"
    },
    {
      "inputs": [],
      "name": "WITHDRAWAL_ADDRESS",
      "outputs": [
        {
          "internalType": "address",
          "name": "",
          "type": "address"
        }
      ],
      "stateMutability": "view",
      "type": "function"
    },
    {
      "inputs": [],
      "name": "WhitelistKeyGenerator",
      "outputs": [
        {
          "internalType": "address",
          "name": "",
          "type": "address"
        }
      ],
      "stateMutability": "view",
      "type": "function"
    },
    {
      "inputs": [
        {
          "internalType": "bytes",
          "name": "_pubkey",
          "type": "bytes"
        },
        {
          "internalType": "uint64[]",
          "name": "_operatorIds",
          "type": "uint64[]"
        },
        {
          "internalType": "bytes",
          "name": "_shares",
          "type": "bytes"
        },
        {
          "internalType": "uint256",
          "name": "_amount",
          "type": "uint256"
        },
        {
          "components": [
            {
              "internalType": "uint32",
              "name": "validatorCount",
              "type": "uint32"
            },
            {
              "internalType": "uint64",
              "name": "networkFeeIndex",
              "type": "uint64"
            },
            {
              "internalType": "uint64",
              "name": "index",
              "type": "uint64"
            },
            {
              "internalType": "uint256",
              "name": "balance",
              "type": "uint256"
            },
            {
              "internalType": "bool",
              "name": "active",
              "type": "bool"
            }
          ],
          "internalType": "struct ISSVNetworkCore.Cluster",
          "name": "_cluster",
          "type": "tuple"
        }
      ],
      "name": "depositShares",
      "outputs": [],
      "stateMutability": "nonpayable",
      "type": "function"
    },
    {
      "inputs": [
        {
          "internalType": "bytes",
          "name": "_pubkey",
          "type": "bytes"
        },
        {
          "internalType": "bytes",
          "name": "_withdrawal_credentials",
          "type": "bytes"
        },
        {
          "internalType": "bytes",
          "name": "_signature",
          "type": "bytes"
        },
        {
          "internalType": "bytes32",
          "name": "_deposit_data_root",
          "type": "bytes32"
        }
      ],
      "name": "depositValidator",
      "outputs": [],
      "stateMutability": "nonpayable",
      "type": "function"
    },
    {
      "inputs": [],
      "name": "getOperators",
      "outputs": [
        {
          "internalType": "uint32[4]",
          "name": "",
          "type": "uint32[4]"
        }
      ],
      "stateMutability": "view",
      "type": "function"
    },
    {
      "inputs": [],
      "name": "getShareprice",
      "outputs": [
        {
          "internalType": "uint256",
          "name": "",
          "type": "uint256"
        }
      ],
      "stateMutability": "view",
      "type": "function"
    },
    {
      "inputs": [
        {
          "internalType": "address",
          "name": "_userAddress",
          "type": "address"
        }
      ],
      "name": "getUserStake",
      "outputs": [
        {
          "internalType": "uint256",
          "name": "",
          "type": "uint256"
        }
      ],
      "stateMutability": "view",
      "type": "function"
    },
    {
      "inputs": [],
      "name": "getValidators",
      "outputs": [
        {
          "internalType": "bytes[]",
          "name": "",
          "type": "bytes[]"
        }
      ],
      "stateMutability": "view",
      "type": "function"
    },
    {
      "inputs": [],
      "name": "owner",
      "outputs": [
        {
          "internalType": "address",
          "name": "",
          "type": "address"
        }
      ],
      "stateMutability": "view",
      "type": "function"
    },
    {
      "inputs": [],
      "name": "renounceOwnership",
      "outputs": [],
      "stateMutability": "nonpayable",
      "type": "function"
    },
    {
      "inputs": [],
      "name": "ssvETH",
      "outputs": [
        {
          "internalType": "contract SSVETH",
          "name": "",
          "type": "address"
        }
      ],
      "stateMutability": "view",
      "type": "function"
    },
    {
      "inputs": [],
      "name": "stake",
      "outputs": [],
      "stateMutability": "payable",
      "type": "function"
    },
    {
      "inputs": [
        {
          "internalType": "address",
          "name": "newOwner",
          "type": "address"
        }
      ],
      "name": "transferOwnership",
      "outputs": [],
      "stateMutability": "nonpayable",
      "type": "function"
    },
    {
      "inputs": [
        {
          "internalType": "uint256",
          "name": "_amount",
          "type": "uint256"
        }
      ],
      "name": "unStake",
      "outputs": [],
      "stateMutability": "nonpayable",
      "type": "function"
    },
    {
      "inputs": [
        {
          "internalType": "uint256",
          "name": "_newBeaconRewards",
          "type": "uint256"
        }
      ],
      "name": "updateBeaconRewards",
      "outputs": [],
      "stateMutability": "nonpayable",
      "type": "function"
    },
    {
      "inputs": [
        {
          "internalType": "uint32[4]",
          "name": "_newOperators",
          "type": "uint32[4]"
        }
      ],
      "name": "updateOperators",
      "outputs": [],
      "stateMutability": "nonpayable",
      "type": "function"
    },
    {
      "stateMutability": "payable",
      "type": "receive"
    }
  ],
  "transactionHash": "0xa4b3ac641ccd6f5e10fb452160bb317012138e417067433a12d4e52016aeeea8",
  "args": [
    "0x4dC2e5A9B42d583A3455941b304878A9aE50d537",
    "0xff50ed3d0ec03ac01d4c79aad74928bff48a7b2b",
    "0x4dC2e5A9B42d583A3455941b304878A9aE50d537",
    "0xAfdb141Dd99b5a101065f40e3D7636262dce65b3",
    "0x3a9f01091C446bdE031E39ea8354647AFef091E7",
    [
      1,
      2,
      9,
      42
    ]
  ],
  "numDeployments": 1,
  "solcInputHash": "11e9e2c3b1db7df56592695228e63879",
  "bytecode": "0x60c06040526801bc16d674ec80000060a0523480156200001e57600080fd5b50604051620029053803806200290583398101604081905262000041916200026c565b6200004c336200010c565b60018055600380546001600160a01b038087166001600160a01b031992831617909255600280548984169216919091179055851660805260405160009062000094906200015c565b604051809103906000f080158015620000b1573d6000803e3d6000fd5b50600480546001600160a01b038084166001600160a01b0319928316178355600680548983169084161790556005805491881691909216179055909150620000fe9060079084906200016a565b50505050505050506200035a565b600080546001600160a01b038381166001600160a01b0319831681178455604051919092169283917f8be0079c531659141344cd1fd0a4f28419497f9722a3daafe3b4186f6b6457e09190a35050565b610e1a8062001aeb83390190565b600183019183908215620001fb5791602002820160005b83821115620001c757835183826101000a81548163ffffffff021916908363ffffffff160217905550926020019260040160208160030104928301926001030262000181565b8015620001f95782816101000a81549063ffffffff0219169055600401602081600301049283019260010302620001c7565b505b50620002099291506200020d565b5090565b5b808211156200020957600081556001016200020e565b80516001600160a01b03811681146200023c57600080fd5b919050565b634e487b7160e01b600052604160045260246000fd5b805163ffffffff811681146200023c57600080fd5b60008060008060008061012080888a0312156200028857600080fd5b620002938862000224565b96506020620002a4818a0162000224565b9650620002b460408a0162000224565b9550620002c460608a0162000224565b9450620002d460808a0162000224565b93508960bf8a0112620002e657600080fd5b604051608081016001600160401b03811182821017156200030b576200030b62000241565b60405291890191808b8411156200032157600080fd5b60a08b015b8481101562000348576200033a8162000257565b825290830190830162000326565b50508093505050509295509295509295565b60805160a05161176462000387600039600081816102530152610b3701526000610b0e01526117646000f3fe6080604052600436106101235760003560e01c806398e4349f116100a0578063df8af7c211610064578063df8af7c214610359578063e6ebe20c14610379578063ed97013b1461038e578063f2fde38b146103ae578063f8d0c40b146103ce57600080fd5b806398e4349f146102a1578063b7ab4db5146102c1578063bbadc93a146102e3578063bf3a6c0a14610319578063cc9fbb761461033957600080fd5b80633a4b66f1116100e75780633a4b66f1146102045780635d3eea911461020c578063715018a61461022c5780637b4bc935146102415780638da5cb5b1461028357600080fd5b806307d0e5401461013857806307dc739f146101755780631b7e5127146101a25780632601d3c7146101c257806327a099d8146101e257600080fd5b3661013357610131346103ee565b005b600080fd5b34801561014457600080fd5b50600554610158906001600160a01b031681565b6040516001600160a01b0390911681526020015b60405180910390f35b34801561018157600080fd5b50610195610190366004610f27565b610408565b60405161016c9190610f86565b3480156101ae57600080fd5b506101316101bd366004610f27565b6104b4565b3480156101ce57600080fd5b50600354610158906001600160a01b031681565b3480156101ee57600080fd5b506101f7610513565b60405161016c9190610fa0565b610131610579565b34801561021857600080fd5b50610131610227366004610f27565b6106ec565b34801561023857600080fd5b50610131610857565b34801561024d57600080fd5b506102757f000000000000000000000000000000000000000000000000000000000000000081565b60405190815260200161016c565b34801561028f57600080fd5b506000546001600160a01b0316610158565b3480156102ad57600080fd5b506101316102bc366004611102565b61086b565b3480156102cd57600080fd5b506102d6610a1e565b60405161016c91906111e8565b3480156102ef57600080fd5b506102756102fe36600461124a565b6001600160a01b03166000908152600b602052604090205490565b34801561032557600080fd5b50610131610334366004611273565b610af7565b34801561034557600080fd5b50600654610158906001600160a01b031681565b34801561036557600080fd5b50600454610158906001600160a01b031681565b34801561038557600080fd5b50610275610be5565b34801561039a57600080fd5b506101316103a9366004611316565b610c58565b3480156103ba57600080fd5b506101316103c936600461124a565b610ca8565b3480156103da57600080fd5b50600254610158906001600160a01b031681565b80600a600082825461040091906113b1565b909155505050565b6008818154811061041857600080fd5b906000526020600020016000915090508054610433906113c4565b80601f016020809104026020016040519081016040528092919081815260200182805461045f906113c4565b80156104ac5780601f10610481576101008083540402835291602001916104ac565b820191906000526020600020905b81548152906001019060200180831161048f57829003601f168201915b505050505081565b6104bc610d21565b60098190556008546000906104d29060206113fe565b6008546104e09060206113fe565b600a546009546104f091906113b1565b6104fa91906113b1565b6105049190611415565b905061050f81610d7b565b5050565b61051b610e58565b60408051608081019182905290600790600490826000855b82829054906101000a900463ffffffff1663ffffffff16815260200190600401906020826003010492830192600103820291508084116105335790505050505050905090565b600034116105a157604051639ed431ad60e01b81523460048201526024015b60405180910390fd5b6004805460408051638726972960e01b81529051600093670de0b6b3a7640000936001600160a01b031692638726972992818301926020928290030181865afa1580156105f2573d6000803e3d6000fd5b505050506040513d601f19601f820116820180604052508101906106169190611437565b61062090346113fe565b61062a9190611415565b600480546040516340c10f1960e01b81523392810192909252602482018390529192506001600160a01b03909116906340c10f1990604401600060405180830381600087803b15801561067c57600080fd5b505af1158015610690573d6000803e3d6000fd5b5050604080513381523460208201527f8c265adcfa641899d6632b86254dda7a76f27701f1d21a732621d51f2328c460935001905060405180910390a1336000908152600b6020526040812080543492906104009084906113b1565b600480546040516323b872dd60e01b81523392810192909252306024830152604482018390526001600160a01b0316906323b872dd906064016020604051808303816000875af1158015610744573d6000803e3d6000fd5b505050506040513d601f19601f820116820180604052508101906107689190611450565b506000600460009054906101000a90046001600160a01b03166001600160a01b031663872697296040518163ffffffff1660e01b8152600401602060405180830381865afa1580156107be573d6000803e3d6000fd5b505050506040513d601f19601f820116820180604052508101906107e29190611437565b6107ec9083611415565b6107fe90670de0b6b3a76400006113fe565b604051909150339082156108fc029083906000818181858888f1935050505015801561082e573d6000803e3d6000fd5b50336000908152600b60205260408120805484929061084e90849061146d565b90915550505050565b61085f610d21565b6108696000610e08565b565b6002546001600160a01b031633146108ab576002546040516301f5a31f60e71b81523360048201526001600160a01b039091166024820152604401610598565b60055460065460405163095ea7b360e01b81526001600160a01b0391821660048201526024810185905291169063095ea7b3906044016020604051808303816000875af1158015610900573d6000803e3d6000fd5b505050506040513d601f19601f820116820180604052508101906109249190611450565b5060065460405163967ef80760e01b81526001600160a01b039091169063967ef80790610963908b908b908b908b908b908b908b908b906004016114a9565b600060405180830381600087803b15801561097d57600080fd5b505af1158015610991573d6000803e3d6000fd5b5050600880546001810182556000919091527ff3f7a9fe364faab93b216da50a3214154f22a0a2b415b23a84c8169e8b636ee30191506109d49050888a836115c6565b507fb23f6ce72d618df33a33105741ed7e13469f7f9ca6eda19e5e505b28783b1f288888868686604051610a0c959493929190611687565b60405180910390a15050505050505050565b60606008805480602002602001604051908101604052809291908181526020016000905b82821015610aee578382906000526020600020018054610a61906113c4565b80601f0160208091040260200160405190810160405280929190818152602001828054610a8d906113c4565b8015610ada5780601f10610aaf57610100808354040283529160200191610ada565b820191906000526020600020905b815481529060010190602001808311610abd57829003601f168201915b505050505081526020019060010190610a42565b50505050905090565b6040516304512a2360e31b81526001600160a01b037f000000000000000000000000000000000000000000000000000000000000000016906322895118907f000000000000000000000000000000000000000000000000000000000000000090610b71908b908b908b908b908b908b908b906004016116c1565b6000604051808303818588803b158015610b8a57600080fd5b505af1158015610b9e573d6000803e3d6000fd5b50505050507f144679c9e19454710222d38e13b257573a15b6ca6a4d10a1254ebc2480cb68638787604051610bd4929190611712565b60405180910390a150505050505050565b6004805460408051638726972960e01b8152905160009384936001600160a01b031692638726972992818301926020928290030181865afa158015610c2e573d6000803e3d6000fd5b505050506040513d601f19601f82011682018060405250810190610c529190611437565b92915050565b610c60610d21565b610c6d6007826004610e76565b507fa31d33307023a78b2b477792a91efbed5ee91448638292c891e81233cb6108f881604051610c9d9190610fa0565b60405180910390a150565b610cb0610d21565b6001600160a01b038116610d155760405162461bcd60e51b815260206004820152602660248201527f4f776e61626c653a206e6577206f776e657220697320746865207a65726f206160448201526564647265737360d01b6064820152608401610598565b610d1e81610e08565b50565b6000546001600160a01b031633146108695760405162461bcd60e51b815260206004820181905260248201527f4f776e61626c653a2063616c6c6572206973206e6f7420746865206f776e65726044820152606401610598565b60048054604051634164020160e01b81529182018390526001600160a01b031690634164020190602401600060405180830381600087803b158015610dbf57600080fd5b505af1158015610dd3573d6000803e3d6000fd5b505050507fce44720b7462058f31ddecab3daa427921e5975d9acb555f043682dada86656981604051610c9d91815260200190565b600080546001600160a01b038381166001600160a01b0319831681178455604051919092169283917f8be0079c531659141344cd1fd0a4f28419497f9722a3daafe3b4186f6b6457e09190a35050565b60405180608001604052806004906020820280368337509192915050565b600183019183908215610f025791602002820160005b83821115610ed057835183826101000a81548163ffffffff021916908363ffffffff1602179055509260200192600401602081600301049283019260010302610e8c565b8015610f005782816101000a81549063ffffffff0219169055600401602081600301049283019260010302610ed0565b505b50610f0e929150610f12565b5090565b5b80821115610f0e5760008155600101610f13565b600060208284031215610f3957600080fd5b5035919050565b6000815180845260005b81811015610f6657602081850181015186830182015201610f4a565b506000602082860101526020601f19601f83011685010191505092915050565b602081526000610f996020830184610f40565b9392505050565b60808101818360005b6004811015610fce57815163ffffffff16835260209283019290910190600101610fa9565b50505092915050565b60008083601f840112610fe957600080fd5b50813567ffffffffffffffff81111561100157600080fd5b60208301915083602082850101111561101957600080fd5b9250929050565b634e487b7160e01b600052604160045260246000fd5b803563ffffffff8116811461104a57600080fd5b919050565b803567ffffffffffffffff8116811461104a57600080fd5b8015158114610d1e57600080fd5b600060a0828403121561108757600080fd5b60405160a0810181811067ffffffffffffffff821117156110aa576110aa611020565b6040529050806110b983611036565b81526110c76020840161104f565b60208201526110d86040840161104f565b60408201526060830135606082015260808301356110f581611067565b6080919091015292915050565b600080600080600080600080610120898b03121561111f57600080fd5b883567ffffffffffffffff8082111561113757600080fd5b6111438c838d01610fd7565b909a50985060208b013591508082111561115c57600080fd5b818b0191508b601f83011261117057600080fd5b81358181111561117f57600080fd5b8c60208260051b850101111561119457600080fd5b6020830198508097505060408b01359150808211156111b257600080fd5b506111bf8b828c01610fd7565b909550935050606089013591506111d98a60808b01611075565b90509295985092959890939650565b6000602080830181845280855180835260408601915060408160051b870101925083870160005b8281101561123d57603f1988860301845261122b858351610f40565b9450928501929085019060010161120f565b5092979650505050505050565b60006020828403121561125c57600080fd5b81356001600160a01b0381168114610f9957600080fd5b60008060008060008060006080888a03121561128e57600080fd5b873567ffffffffffffffff808211156112a657600080fd5b6112b28b838c01610fd7565b909950975060208a01359150808211156112cb57600080fd5b6112d78b838c01610fd7565b909750955060408a01359150808211156112f057600080fd5b506112fd8a828b01610fd7565b989b979a50959894979596606090950135949350505050565b60006080828403121561132857600080fd5b82601f83011261133757600080fd5b6040516080810181811067ffffffffffffffff8211171561135a5761135a611020565b60405280608084018581111561136f57600080fd5b845b818110156113905761138281611036565b835260209283019201611371565b509195945050505050565b634e487b7160e01b600052601160045260246000fd5b80820180821115610c5257610c5261139b565b600181811c908216806113d857607f821691505b6020821081036113f857634e487b7160e01b600052602260045260246000fd5b50919050565b8082028115828204841417610c5257610c5261139b565b60008261143257634e487b7160e01b600052601260045260246000fd5b500490565b60006020828403121561144957600080fd5b5051919050565b60006020828403121561146257600080fd5b8151610f9981611067565b81810381811115610c5257610c5261139b565b81835281816020850137506000828201602090810191909152601f909101601f19169091010190565b60006101208083526114be8184018b8d611480565b8381036020858101919091528982528a925090810160005b8a8110156115035767ffffffffffffffff6114f08561104f565b16825292820192908201906001016114d6565b50848103604086015261151781898b611480565b93505085606085015263ffffffff85511660808501528085015191505067ffffffffffffffff80821660a08501528060408601511660c08501525050606083015160e0830152608083015115156101008301529998505050505050505050565b601f8211156115c157600081815260208120601f850160051c8101602086101561159e5750805b601f850160051c820191505b818110156115bd578281556001016115aa565b5050505b505050565b67ffffffffffffffff8311156115de576115de611020565b6115f2836115ec83546113c4565b83611577565b6000601f841160018114611626576000851561160e5750838201355b600019600387901b1c1916600186901b178355611680565b600083815260209020601f19861690835b828110156116575786850135825560209485019460019092019101611637565b50868210156116745760001960f88860031b161c19848701351681555b505060018560011b0183555b5050505050565b60608152600061169b606083018789611480565b82810360208401526116ae818688611480565b9150508260408301529695505050505050565b6080815260006116d560808301898b611480565b82810360208401526116e881888a611480565b905082810360408401526116fd818688611480565b91505082606083015298975050505050505050565b602081526000611726602083018486611480565b94935050505056fea26469706673582212202b2001f42d2186b0cd17afc750e80cfc53753a4ce381dbcdbb49a1f134bc56f764736f6c634300081200336080604052670de0b6b3a76400006007553480156200001d57600080fd5b506040518060400160405280601e81526020017f646563656e7472616c697a6564207374616b696e672077697468207373760000815250604051806040016040528060068152602001650e6e6ec8aa8960d31b8152508160039081620000849190620001c3565b506004620000938282620001c3565b505050620000b0620000aa620000c860201b60201c565b620000cc565b600680546001600160a01b031916331790556200028f565b3390565b600580546001600160a01b038381166001600160a01b0319831681179093556040519116919082907f8be0079c531659141344cd1fd0a4f28419497f9722a3daafe3b4186f6b6457e090600090a35050565b634e487b7160e01b600052604160045260246000fd5b600181811c908216806200014957607f821691505b6020821081036200016a57634e487b7160e01b600052602260045260246000fd5b50919050565b601f821115620001be57600081815260208120601f850160051c81016020861015620001995750805b601f850160051c820191505b81811015620001ba57828155600101620001a5565b5050505b505050565b81516001600160401b03811115620001df57620001df6200011e565b620001f781620001f0845462000134565b8462000170565b602080601f8311600181146200022f5760008415620002165750858301515b600019600386901b1c1916600185901b178555620001ba565b600085815260208120601f198616915b8281101562000260578886015182559484019460019091019084016200023f565b50858210156200027f5787850151600019600388901b60f8161c191681555b5050505050600190811b01905550565b610b7b806200029f6000396000f3fe608060405234801561001057600080fd5b50600436106101165760003560e01c806370a08231116100a257806395d89b411161007157806395d89b4114610241578063a457c2d714610249578063a9059cbb1461025c578063dd62ed3e1461026f578063f2fde38b1461028257600080fd5b806370a08231146101f6578063715018a61461021f57806387269729146102275780638da5cb5b1461023057600080fd5b806323b872dd116100e957806323b872dd14610199578063313ce567146101ac57806339509351146101bb57806340c10f19146101ce57806341640201146101e357600080fd5b806306fdde031461011b5780630754617214610139578063095ea7b31461016457806318160ddd14610187575b600080fd5b610123610295565b60405161013091906109ac565b60405180910390f35b60065461014c906001600160a01b031681565b6040516001600160a01b039091168152602001610130565b610177610172366004610a16565b610327565b6040519015158152602001610130565b6002545b604051908152602001610130565b6101776101a7366004610a40565b610341565b60405160128152602001610130565b6101776101c9366004610a16565b610365565b6101e16101dc366004610a16565b610387565b005b6101e16101f1366004610a7c565b61039d565b61018b610204366004610a95565b6001600160a01b031660009081526020819052604090205490565b6101e16103aa565b61018b60075481565b6005546001600160a01b031661014c565b6101236103be565b610177610257366004610a16565b6103cd565b61017761026a366004610a16565b61044d565b61018b61027d366004610ab7565b61045b565b6101e1610290366004610a95565b610486565b6060600380546102a490610aea565b80601f01602080910402602001604051908101604052809291908181526020018280546102d090610aea565b801561031d5780601f106102f25761010080835404028352916020019161031d565b820191906000526020600020905b81548152906001019060200180831161030057829003601f168201915b5050505050905090565b6000336103358185856104ff565b60019150505b92915050565b60003361034f858285610623565b61035a85858561069d565b506001949350505050565b600033610335818585610378838361045b565b6103829190610b24565b6104ff565b61038f610841565b610399828261089b565b5050565b6103a5610841565b600755565b6103b2610841565b6103bc600061095a565b565b6060600480546102a490610aea565b600033816103db828661045b565b9050838110156104405760405162461bcd60e51b815260206004820152602560248201527f45524332303a2064656372656173656420616c6c6f77616e63652062656c6f77604482015264207a65726f60d81b60648201526084015b60405180910390fd5b61035a82868684036104ff565b60003361033581858561069d565b6001600160a01b03918216600090815260016020908152604080832093909416825291909152205490565b61048e610841565b6001600160a01b0381166104f35760405162461bcd60e51b815260206004820152602660248201527f4f776e61626c653a206e6577206f776e657220697320746865207a65726f206160448201526564647265737360d01b6064820152608401610437565b6104fc8161095a565b50565b6001600160a01b0383166105615760405162461bcd60e51b8152602060048201526024808201527f45524332303a20617070726f76652066726f6d20746865207a65726f206164646044820152637265737360e01b6064820152608401610437565b6001600160a01b0382166105c25760405162461bcd60e51b815260206004820152602260248201527f45524332303a20617070726f766520746f20746865207a65726f206164647265604482015261737360f01b6064820152608401610437565b6001600160a01b0383811660008181526001602090815260408083209487168084529482529182902085905590518481527f8c5be1e5ebec7d5bd14f71427d1e84f3dd0314c0f7b2291e5b200ac8c7c3b925910160405180910390a3505050565b600061062f848461045b565b90506000198114610697578181101561068a5760405162461bcd60e51b815260206004820152601d60248201527f45524332303a20696e73756666696369656e7420616c6c6f77616e63650000006044820152606401610437565b61069784848484036104ff565b50505050565b6001600160a01b0383166107015760405162461bcd60e51b815260206004820152602560248201527f45524332303a207472616e736665722066726f6d20746865207a65726f206164604482015264647265737360d81b6064820152608401610437565b6001600160a01b0382166107635760405162461bcd60e51b815260206004820152602360248201527f45524332303a207472616e7366657220746f20746865207a65726f206164647260448201526265737360e81b6064820152608401610437565b6001600160a01b038316600090815260208190526040902054818110156107db5760405162461bcd60e51b815260206004820152602660248201527f45524332303a207472616e7366657220616d6f756e7420657863656564732062604482015265616c616e636560d01b6064820152608401610437565b6001600160a01b03848116600081815260208181526040808320878703905593871680835291849020805487019055925185815290927fddf252ad1be2c89b69c2b068fc378daa952ba7f163c4a11628f55a4df523b3ef910160405180910390a3610697565b6005546001600160a01b031633146103bc5760405162461bcd60e51b815260206004820181905260248201527f4f776e61626c653a2063616c6c6572206973206e6f7420746865206f776e65726044820152606401610437565b6001600160a01b0382166108f15760405162461bcd60e51b815260206004820152601f60248201527f45524332303a206d696e7420746f20746865207a65726f2061646472657373006044820152606401610437565b80600260008282546109039190610b24565b90915550506001600160a01b038216600081815260208181526040808320805486019055518481527fddf252ad1be2c89b69c2b068fc378daa952ba7f163c4a11628f55a4df523b3ef910160405180910390a35050565b600580546001600160a01b038381166001600160a01b0319831681179093556040519116919082907f8be0079c531659141344cd1fd0a4f28419497f9722a3daafe3b4186f6b6457e090600090a35050565b600060208083528351808285015260005b818110156109d9578581018301518582016040015282016109bd565b506000604082860101526040601f19601f8301168501019250505092915050565b80356001600160a01b0381168114610a1157600080fd5b919050565b60008060408385031215610a2957600080fd5b610a32836109fa565b946020939093013593505050565b600080600060608486031215610a5557600080fd5b610a5e846109fa565b9250610a6c602085016109fa565b9150604084013590509250925092565b600060208284031215610a8e57600080fd5b5035919050565b600060208284031215610aa757600080fd5b610ab0826109fa565b9392505050565b60008060408385031215610aca57600080fd5b610ad3836109fa565b9150610ae1602084016109fa565b90509250929050565b600181811c90821680610afe57607f821691505b602082108103610b1e57634e487b7160e01b600052602260045260246000fd5b50919050565b8082018082111561033b57634e487b7160e01b600052601160045260246000fdfea264697066735822122068cb439acda39e6471008331014cb623055fdf50d578f5d9ba1d112054509a7c64736f6c63430008120033",
  "devdoc": {
    "kind": "dev",
    "methods": {
      "depositShares(bytes,uint64[],bytes,uint256,(uint32,uint64,uint64,uint256,bool))": {
        "details": "Callable by the whitelisted address",
        "params": {
          "_amount": ": Amount of tokens to be deposited",
          "_cluster": ": Latest Cluster information",
          "_operatorIds": ": IDs of the validator's operators",
          "_pubkey": ": Public key of the validator",
          "_shares": ": Public keys of the shares"
        }
      },
      "depositValidator(bytes,bytes,bytes,bytes32)": {
        "params": {
          "_deposit_data_root": ": Root of the deposit data",
          "_pubkey": ": Public key of the validator",
          "_signature": ": Signature of the deposit data",
          "_withdrawal_credentials": ": Withdrawal credentials of the validator"
        }
      },
      "owner()": {
        "details": "Returns the address of the current owner."
      },
      "renounceOwnership()": {
        "details": "Leaves the contract without owner. It will not be possible to call `onlyOwner` functions anymore. Can only be called by the current owner. NOTE: Renouncing ownership will leave the contract without an owner, thereby removing any functionality that is only available to the owner."
      },
      "transferOwnership(address)": {
        "details": "Transfers ownership of the contract to a new account (`newOwner`). Can only be called by the current owner."
      },
      "unStake(uint256)": {
        "params": {
          "_amount": ": Amount to be unstaked"
        }
      },
      "updateBeaconRewards(uint256)": {
        "details": "Update share price of the staking pool",
        "params": {
          "_newBeaconRewards": ": The new beacon rewards amount"
        }
      },
      "updateOperators(uint32[4])": {
        "details": "Update operators",
        "params": {
          "_newOperators": ": Array of the the new operators Ids"
        }
      }
    },
    "version": 1
  },
  "userdoc": {
    "errors": {
      "StakingPool__CantStakeZeroAmount(uint256)": [
        {
          "notice": "this contract utilizes custom errors to optimize gas usage, instead of normal `require` conditionals.  By using custom errors instead, we don't need to use up storage space on the `require`'s revert string messages. This also allows developers and users to see customizable output values when the custom error is invoked "
        }
      ]
    },
    "kind": "user",
    "methods": {
      "depositShares(bytes,uint64[],bytes,uint256,(uint32,uint64,uint64,uint256,bool))": {
        "notice": "Deposit shares for a validator"
      },
      "depositValidator(bytes,bytes,bytes,bytes32)": {
        "notice": "Deposit a validator to the deposit contract"
      },
      "getOperators()": {
        "notice": "Get operator ids, check operators here https://explorer.ssv.network/"
      },
      "getShareprice()": {
        "notice": "Get share price"
      },
      "getUserStake(address)": {
        "notice": "Get user's staked amount"
      },
      "getValidators()": {
        "notice": "Get validators array"
      },
      "stake()": {
        "notice": "Stake tokens"
      },
      "unStake(uint256)": {
        "notice": "Unstake tokens"
      }
    },
    "version": 1
  },
  "storageLayout": {
    "storage": [
      {
        "astId": 396,
        "contract": "contracts/StakingPool.sol:StakingPool",
        "label": "_owner",
        "offset": 0,
        "slot": "0",
        "type": "t_address"
      },
      {
        "astId": 512,
        "contract": "contracts/StakingPool.sol:StakingPool",
        "label": "_status",
        "offset": 0,
        "slot": "1",
        "type": "t_uint256"
      },
      {
        "astId": 2423,
        "contract": "contracts/StakingPool.sol:StakingPool",
        "label": "WhitelistKeyGenerator",
        "offset": 0,
        "slot": "2",
        "type": "t_address"
      },
      {
        "astId": 2425,
        "contract": "contracts/StakingPool.sol:StakingPool",
        "label": "WITHDRAWAL_ADDRESS",
        "offset": 0,
        "slot": "3",
        "type": "t_address"
      },
      {
        "astId": 2431,
        "contract": "contracts/StakingPool.sol:StakingPool",
        "label": "ssvETH",
        "offset": 0,
        "slot": "4",
        "type": "t_contract(SSVETH)2398"
      },
      {
        "astId": 2438,
        "contract": "contracts/StakingPool.sol:StakingPool",
        "label": "SSV_TOKEN_ADDR",
        "offset": 0,
        "slot": "5",
        "type": "t_address"
      },
      {
        "astId": 2440,
        "contract": "contracts/StakingPool.sol:StakingPool",
        "label": "SSV_CONTRACT_ADDR",
        "offset": 0,
        "slot": "6",
        "type": "t_address"
      },
      {
        "astId": 2444,
        "contract": "contracts/StakingPool.sol:StakingPool",
        "label": "OperatorIDs",
        "offset": 0,
        "slot": "7",
        "type": "t_array(t_uint32)4_storage"
      },
      {
        "astId": 2447,
        "contract": "contracts/StakingPool.sol:StakingPool",
        "label": "Validators",
        "offset": 0,
        "slot": "8",
        "type": "t_array(t_bytes_storage)dyn_storage"
      },
      {
        "astId": 2449,
        "contract": "contracts/StakingPool.sol:StakingPool",
        "label": "beaconRewards",
        "offset": 0,
        "slot": "9",
        "type": "t_uint256"
      },
      {
        "astId": 2451,
        "contract": "contracts/StakingPool.sol:StakingPool",
        "label": "executionRewards",
        "offset": 0,
        "slot": "10",
        "type": "t_uint256"
      },
      {
        "astId": 2455,
        "contract": "contracts/StakingPool.sol:StakingPool",
        "label": "userStake",
        "offset": 0,
        "slot": "11",
        "type": "t_mapping(t_address,t_uint256)"
      }
    ],
    "types": {
      "t_address": {
        "encoding": "inplace",
        "label": "address",
        "numberOfBytes": "20"
      },
      "t_array(t_bytes_storage)dyn_storage": {
        "base": "t_bytes_storage",
        "encoding": "dynamic_array",
        "label": "bytes[]",
        "numberOfBytes": "32"
      },
      "t_array(t_uint32)4_storage": {
        "base": "t_uint32",
        "encoding": "inplace",
        "label": "uint32[4]",
        "numberOfBytes": "32"
      },
      "t_bytes_storage": {
        "encoding": "bytes",
        "label": "bytes",
        "numberOfBytes": "32"
      },
      "t_contract(SSVETH)2398": {
        "encoding": "inplace",
        "label": "contract SSVETH",
        "numberOfBytes": "20"
      },
      "t_mapping(t_address,t_uint256)": {
        "encoding": "mapping",
        "key": "t_address",
        "label": "mapping(address => uint256)",
        "numberOfBytes": "32",
        "value": "t_uint256"
      },
      "t_uint256": {
        "encoding": "inplace",
        "label": "uint256",
        "numberOfBytes": "32"
      },
      "t_uint32": {
        "encoding": "inplace",
        "label": "uint32",
        "numberOfBytes": "4"
      }
    }
  }
}