{
  "_format": "hh-sol-artifact-1",
  "contractName": "SSVNetworkViews",
  "sourceName": "contracts/SSVNetworkViews.sol",
  "abi": [
    {
      "inputs": [],
      "name": "ApprovalNotWithinTimeframe",
      "type": "error"
    },
    {
      "inputs": [],
      "name": "CallerNotOwner",
      "type": "error"
    },
    {
      "inputs": [],
      "name": "CallerNotWhitelisted",
      "type": "error"
    },
    {
      "inputs": [],
      "name": "ClusterAlreadyEnabled",
      "type": "error"
    },
    {
      "inputs": [],
      "name": "ClusterDoesNotExists",
      "type": "error"
    },
    {
      "inputs": [],
      "name": "ClusterIsLiquidated",
      "type": "error"
    },
    {
      "inputs": [],
      "name": "ClusterNotLiquidatable",
      "type": "error"
    },
    {
      "inputs": [],
      "name": "ExceedValidatorLimit",
      "type": "error"
    },
    {
      "inputs": [],
      "name": "FeeExceedsIncreaseLimit",
      "type": "error"
    },
    {
      "inputs": [],
      "name": "FeeIncreaseNotAllowed",
      "type": "error"
    },
    {
      "inputs": [],
      "name": "FeeTooLow",
      "type": "error"
    },
    {
      "inputs": [],
      "name": "IncorrectClusterState",
      "type": "error"
    },
    {
      "inputs": [],
      "name": "InsufficientBalance",
      "type": "error"
    },
    {
      "inputs": [],
      "name": "InvalidOperatorIdsLength",
      "type": "error"
    },
    {
      "inputs": [],
      "name": "InvalidPublicKeyLength",
      "type": "error"
    },
    {
      "inputs": [],
      "name": "NewBlockPeriodIsBelowMinimum",
      "type": "error"
    },
    {
      "inputs": [],
      "name": "NoFeeDelcared",
      "type": "error"
    },
    {
      "inputs": [],
      "name": "OperatorDoesNotExist",
      "type": "error"
    },
    {
      "inputs": [],
      "name": "SameFeeChangeNotAllowed",
      "type": "error"
    },
    {
      "inputs": [],
      "name": "TokenTransferFailed",
      "type": "error"
    },
    {
      "inputs": [],
      "name": "UnsortedOperatorsList",
      "type": "error"
    },
    {
      "inputs": [],
      "name": "ValidatorAlreadyExists",
      "type": "error"
    },
    {
      "inputs": [],
      "name": "ValidatorDoesNotExist",
      "type": "error"
    },
    {
      "inputs": [],
      "name": "ValidatorOwnedByOtherAddress",
      "type": "error"
    },
    {
      "anonymous": false,
      "inputs": [
        {
          "indexed": false,
          "internalType": "address",
          "name": "previousAdmin",
          "type": "address"
        },
        {
          "indexed": false,
          "internalType": "address",
          "name": "newAdmin",
          "type": "address"
        }
      ],
      "name": "AdminChanged",
      "type": "event"
    },
    {
      "anonymous": false,
      "inputs": [
        {
          "indexed": true,
          "internalType": "address",
          "name": "beacon",
          "type": "address"
        }
      ],
      "name": "BeaconUpgraded",
      "type": "event"
    },
    {
      "anonymous": false,
      "inputs": [
        {
          "indexed": false,
          "internalType": "uint8",
          "name": "version",
          "type": "uint8"
        }
      ],
      "name": "Initialized",
      "type": "event"
    },
    {
      "anonymous": false,
      "inputs": [
        {
          "indexed": true,
          "internalType": "address",
          "name": "previousOwner",
          "type": "address"
        },
        {
          "indexed": true,
          "internalType": "address",
          "name": "newOwner",
          "type": "address"
        }
      ],
      "name": "OwnershipTransferStarted",
      "type": "event"
    },
    {
      "anonymous": false,
      "inputs": [
        {
          "indexed": true,
          "internalType": "address",
          "name": "previousOwner",
          "type": "address"
        },
        {
          "indexed": true,
          "internalType": "address",
          "name": "newOwner",
          "type": "address"
        }
      ],
      "name": "OwnershipTransferred",
      "type": "event"
    },
    {
      "anonymous": false,
      "inputs": [
        {
          "indexed": true,
          "internalType": "address",
          "name": "implementation",
          "type": "address"
        }
      ],
      "name": "Upgraded",
      "type": "event"
    },
    {
      "inputs": [],
      "name": "acceptOwnership",
      "outputs": [],
      "stateMutability": "nonpayable",
      "type": "function"
    },
    {
      "inputs": [
        {
          "internalType": "address",
          "name": "owner",
          "type": "address"
        },
        {
          "internalType": "uint64[]",
          "name": "operatorIds",
          "type": "uint64[]"
        },
        {
          "components": [
            {
              "internalType": "uint32",
              "name": "validatorCount",
              "type": "uint32"
            },
            {
              "internalType": "uint64",
              "name": "networkFeeIndex",
              "type": "uint64"
            },
            {
              "internalType": "uint64",
              "name": "index",
              "type": "uint64"
            },
            {
              "internalType": "uint256",
              "name": "balance",
              "type": "uint256"
            },
            {
              "internalType": "bool",
              "name": "active",
              "type": "bool"
            }
          ],
          "internalType": "struct ISSVNetworkCore.Cluster",
          "name": "cluster",
          "type": "tuple"
        }
      ],
      "name": "getBalance",
      "outputs": [
        {
          "internalType": "uint256",
          "name": "",
          "type": "uint256"
        }
      ],
      "stateMutability": "view",
      "type": "function"
    },
    {
      "inputs": [
        {
          "internalType": "address",
          "name": "owner",
          "type": "address"
        },
        {
          "internalType": "uint64[]",
          "name": "operatorIds",
          "type": "uint64[]"
        },
        {
          "components": [
            {
              "internalType": "uint32",
              "name": "validatorCount",
              "type": "uint32"
            },
            {
              "internalType": "uint64",
              "name": "networkFeeIndex",
              "type": "uint64"
            },
            {
              "internalType": "uint64",
              "name": "index",
              "type": "uint64"
            },
            {
              "internalType": "uint256",
              "name": "balance",
              "type": "uint256"
            },
            {
              "internalType": "bool",
              "name": "active",
              "type": "bool"
            }
          ],
          "internalType": "struct ISSVNetworkCore.Cluster",
          "name": "cluster",
          "type": "tuple"
        }
      ],
      "name": "getBurnRate",
      "outputs": [
        {
          "internalType": "uint256",
          "name": "",
          "type": "uint256"
        }
      ],
      "stateMutability": "view",
      "type": "function"
    },
    {
      "inputs": [],
      "name": "getDeclaredOperatorFeePeriod",
      "outputs": [
        {
          "internalType": "uint64",
          "name": "",
          "type": "uint64"
        }
      ],
      "stateMutability": "view",
      "type": "function"
    },
    {
      "inputs": [],
      "name": "getExecuteOperatorFeePeriod",
      "outputs": [
        {
          "internalType": "uint64",
          "name": "",
          "type": "uint64"
        }
      ],
      "stateMutability": "view",
      "type": "function"
    },
    {
      "inputs": [],
      "name": "getLiquidationThresholdPeriod",
      "outputs": [
        {
          "internalType": "uint64",
          "name": "",
          "type": "uint64"
        }
      ],
      "stateMutability": "view",
      "type": "function"
    },
    {
      "inputs": [],
      "name": "getMinimumLiquidationCollateral",
      "outputs": [
        {
          "internalType": "uint256",
          "name": "",
          "type": "uint256"
        }
      ],
      "stateMutability": "view",
      "type": "function"
    },
    {
      "inputs": [],
      "name": "getNetworkEarnings",
      "outputs": [
        {
          "internalType": "uint256",
          "name": "",
          "type": "uint256"
        }
      ],
      "stateMutability": "view",
      "type": "function"
    },
    {
      "inputs": [],
      "name": "getNetworkFee",
      "outputs": [
        {
          "internalType": "uint256",
          "name": "",
          "type": "uint256"
        }
      ],
      "stateMutability": "view",
      "type": "function"
    },
    {
      "inputs": [
        {
          "internalType": "uint64",
          "name": "operatorId",
          "type": "uint64"
        }
      ],
      "name": "getOperatorById",
      "outputs": [
        {
          "internalType": "address",
          "name": "",
          "type": "address"
        },
        {
          "internalType": "uint256",
          "name": "",
          "type": "uint256"
        },
        {
          "internalType": "uint32",
          "name": "",
          "type": "uint32"
        },
        {
          "internalType": "bool",
          "name": "",
          "type": "bool"
        },
        {
          "internalType": "bool",
          "name": "",
          "type": "bool"
        }
      ],
      "stateMutability": "view",
      "type": "function"
    },
    {
      "inputs": [
        {
          "internalType": "uint64",
          "name": "operatorId",
          "type": "uint64"
        }
      ],
      "name": "getOperatorDeclaredFee",
      "outputs": [
        {
          "internalType": "uint256",
          "name": "",
          "type": "uint256"
        },
        {
          "internalType": "uint256",
          "name": "",
          "type": "uint256"
        },
        {
          "internalType": "uint256",
          "name": "",
          "type": "uint256"
        }
      ],
      "stateMutability": "view",
      "type": "function"
    },
    {
      "inputs": [
        {
          "internalType": "uint64",
          "name": "id",
          "type": "uint64"
        }
      ],
      "name": "getOperatorEarnings",
      "outputs": [
        {
          "internalType": "uint256",
          "name": "",
          "type": "uint256"
        }
      ],
      "stateMutability": "view",
      "type": "function"
    },
    {
      "inputs": [
        {
          "internalType": "uint64",
          "name": "operatorId",
          "type": "uint64"
        }
      ],
      "name": "getOperatorFee",
      "outputs": [
        {
          "internalType": "uint256",
          "name": "",
          "type": "uint256"
        }
      ],
      "stateMutability": "view",
      "type": "function"
    },
    {
      "inputs": [],
      "name": "getOperatorFeeIncreaseLimit",
      "outputs": [
        {
          "internalType": "uint64",
          "name": "",
          "type": "uint64"
        }
      ],
      "stateMutability": "view",
      "type": "function"
    },
    {
      "inputs": [
        {
          "internalType": "bytes",
          "name": "publicKey",
          "type": "bytes"
        }
      ],
      "name": "getValidator",
      "outputs": [
        {
          "internalType": "address",
          "name": "",
          "type": "address"
        },
        {
          "internalType": "bool",
          "name": "",
          "type": "bool"
        }
      ],
      "stateMutability": "view",
      "type": "function"
    },
    {
      "inputs": [],
      "name": "getVersion",
      "outputs": [
        {
          "internalType": "string",
          "name": "version",
          "type": "string"
        }
      ],
      "stateMutability": "view",
      "type": "function"
    },
    {
      "inputs": [
        {
          "internalType": "contract SSVNetwork",
          "name": "ssvNetwork_",
          "type": "address"
        }
      ],
      "name": "initialize",
      "outputs": [],
      "stateMutability": "nonpayable",
      "type": "function"
    },
    {
      "inputs": [
        {
          "internalType": "address",
          "name": "owner",
          "type": "address"
        },
        {
          "internalType": "uint64[]",
          "name": "operatorIds",
          "type": "uint64[]"
        },
        {
          "components": [
            {
              "internalType": "uint32",
              "name": "validatorCount",
              "type": "uint32"
            },
            {
              "internalType": "uint64",
              "name": "networkFeeIndex",
              "type": "uint64"
            },
            {
              "internalType": "uint64",
              "name": "index",
              "type": "uint64"
            },
            {
              "internalType": "uint256",
              "name": "balance",
              "type": "uint256"
            },
            {
              "internalType": "bool",
              "name": "active",
              "type": "bool"
            }
          ],
          "internalType": "struct ISSVNetworkCore.Cluster",
          "name": "cluster",
          "type": "tuple"
        }
      ],
      "name": "isLiquidatable",
      "outputs": [
        {
          "internalType": "bool",
          "name": "",
          "type": "bool"
        }
      ],
      "stateMutability": "view",
      "type": "function"
    },
    {
      "inputs": [
        {
          "internalType": "address",
          "name": "owner",
          "type": "address"
        },
        {
          "internalType": "uint64[]",
          "name": "operatorIds",
          "type": "uint64[]"
        },
        {
          "components": [
            {
              "internalType": "uint32",
              "name": "validatorCount",
              "type": "uint32"
            },
            {
              "internalType": "uint64",
              "name": "networkFeeIndex",
              "type": "uint64"
            },
            {
              "internalType": "uint64",
              "name": "index",
              "type": "uint64"
            },
            {
              "internalType": "uint256",
              "name": "balance",
              "type": "uint256"
            },
            {
              "internalType": "bool",
              "name": "active",
              "type": "bool"
            }
          ],
          "internalType": "struct ISSVNetworkCore.Cluster",
          "name": "cluster",
          "type": "tuple"
        }
      ],
      "name": "isLiquidated",
      "outputs": [
        {
          "internalType": "bool",
          "name": "",
          "type": "bool"
        }
      ],
      "stateMutability": "view",
      "type": "function"
    },
    {
      "inputs": [],
      "name": "owner",
      "outputs": [
        {
          "internalType": "address",
          "name": "",
          "type": "address"
        }
      ],
      "stateMutability": "view",
      "type": "function"
    },
    {
      "inputs": [],
      "name": "pendingOwner",
      "outputs": [
        {
          "internalType": "address",
          "name": "",
          "type": "address"
        }
      ],
      "stateMutability": "view",
      "type": "function"
    },
    {
      "inputs": [],
      "name": "proxiableUUID",
      "outputs": [
        {
          "internalType": "bytes32",
          "name": "",
          "type": "bytes32"
        }
      ],
      "stateMutability": "view",
      "type": "function"
    },
    {
      "inputs": [],
      "name": "renounceOwnership",
      "outputs": [],
      "stateMutability": "nonpayable",
      "type": "function"
    },
    {
      "inputs": [
        {
          "internalType": "address",
          "name": "newOwner",
          "type": "address"
        }
      ],
      "name": "transferOwnership",
      "outputs": [],
      "stateMutability": "nonpayable",
      "type": "function"
    },
    {
      "inputs": [
        {
          "internalType": "address",
          "name": "newImplementation",
          "type": "address"
        }
      ],
      "name": "upgradeTo",
      "outputs": [],
      "stateMutability": "nonpayable",
      "type": "function"
    },
    {
      "inputs": [
        {
          "internalType": "address",
          "name": "newImplementation",
          "type": "address"
        },
        {
          "internalType": "bytes",
          "name": "data",
          "type": "bytes"
        }
      ],
      "name": "upgradeToAndCall",
      "outputs": [],
      "stateMutability": "payable",
      "type": "function"
    }
  ],
  "bytecode": "0x60a06040523060805234801561001457600080fd5b506080516132f161005a60003960008181610ae301528181610b7e01528181610c8501528181610d1b01528181610e1601528181611ac60152611b5c01526132f16000f3fe6080604052600436106101a15760003560e01c806379ba5097116100e1578063be3f058e1161008a578063e30c397811610064578063e30c3978146104c1578063f2fde38b146104df578063f44e0324146104ff578063fc0438301461051f57600080fd5b8063be3f058e1461042d578063c4d66de81461048c578063dd83fcb6146104ac57600080fd5b80639ad3c745116100bb5780639ad3c745146103ae578063b4891bfd146103ce578063b49a6c971461040d57600080fd5b806379ba5097146103525780638da5cb5b146103675780639040f7c31461039957600080fd5b80634f1ef2861161014e57806368465f7d1161012857806368465f7d146102f35780636d0db0e414610308578063715018a614610328578063777915cb1461033d57600080fd5b80634f1ef286146102b657806352d1902d146102c95780635ba3d62a146102de57600080fd5b80631ed8bc4c1161017f5780631ed8bc4c146102365780631fe27a0f146102645780633659cfe61461029457600080fd5b806303b3d436146101a65780630d8e6e2c146101e65780631be2bd7414610208575b600080fd5b3480156101b257600080fd5b506101c66101c1366004612b52565b610534565b604080519384526020840192909252908201526060015b60405180910390f35b3480156101f257600080fd5b506101fb610646565b6040516101dd9190612b93565b34801561021457600080fd5b5061021d610794565b60405167ffffffffffffffff90911681526020016101dd565b34801561024257600080fd5b50610256610251366004612c6b565b610820565b6040519081526020016101dd565b34801561027057600080fd5b5061028461027f366004612c6b565b610a7c565b60405190151581526020016101dd565b3480156102a057600080fd5b506102b46102af366004612d85565b610ad9565b005b6102b46102c4366004612da2565b610c7b565b3480156102d557600080fd5b50610256610e09565b3480156102ea57600080fd5b50610256610ece565b3480156102ff57600080fd5b5061021d610f59565b34801561031457600080fd5b50610256610323366004612b52565b610fbc565b34801561033457600080fd5b506102b46110f4565b34801561034957600080fd5b50610256611108565b34801561035e57600080fd5b506102b4611258565b34801561037357600080fd5b506097546001600160a01b03165b6040516001600160a01b0390911681526020016101dd565b3480156103a557600080fd5b5061021d6112e3565b3480156103ba57600080fd5b506102566103c9366004612b52565b611346565b3480156103da57600080fd5b506103ee6103e9366004612e4a565b611422565b604080516001600160a01b0390931683529015156020830152016101dd565b34801561041957600080fd5b50610284610428366004612c6b565b6114d7565b34801561043957600080fd5b5061044d610448366004612b52565b61183b565b604080516001600160a01b039096168652602086019490945263ffffffff9092169284019290925290151560608301521515608082015260a0016101dd565b34801561049857600080fd5b506102b46104a7366004612d85565b6119cf565b3480156104b857600080fd5b5061021d611cb2565b3480156104cd57600080fd5b5060c9546001600160a01b0316610381565b3480156104eb57600080fd5b506102b46104fa366004612d85565b611d15565b34801561050b57600080fd5b5061025661051a366004612c6b565b611d93565b34801561052b57600080fd5b50610256611fb2565b60fb546040517f1bc1d9d300000000000000000000000000000000000000000000000000000000815267ffffffffffffffff83166004820152600091829182918291829182916001600160a01b0390911690631bc1d9d390602401606060405180830381865afa1580156105ac573d6000803e3d6000fd5b505050506040513d601f19601f820116820180604052508101906105d09190612ebc565b9250925092508267ffffffffffffffff1660000361061a576040517f26607f7100000000000000000000000000000000000000000000000000000000815260040160405180910390fd5b61062d8367ffffffffffffffff16612049565b9767ffffffffffffffff92831697509116945092505050565b6060600060fb60009054906101000a90046001600160a01b03166001600160a01b03166354fd4d506040518163ffffffff1660e01b8152600401602060405180830381865afa15801561069d573d6000803e3d6000fd5b505050506040513d601f19601f820116820180604052508101906106c19190612f09565b6040516020016106d391815260200190565b604051602081830303815290604052905060005b60208160ff161080156107345750818160ff168151811061070a5761070a612f22565b01602001517fff000000000000000000000000000000000000000000000000000000000000001615155b1561078f5782828260ff168151811061074f5761074f612f22565b602001015160f81c60f81b60405160200161076b929190612f38565b6040516020818303038152906040529250808061078790612f95565b9150506106e7565b505090565b60fb54604080517fb2802f4f00000000000000000000000000000000000000000000000000000000815290516000926001600160a01b03169163b2802f4f9160048083019260209291908290030181865afa1580156107f7573d6000803e3d6000fd5b505050506040513d601f19601f8201168201806040525081019061081b9190612fb4565b905090565b600061086f858585808060200260200160405190810160405280939291908181526020018383602002808284376000920191909152505060fb5487949392506001600160a01b03169050612068565b50610879826122c5565b600083815b818110156109935760fb5460009081906001600160a01b03166397f988dc8a8a868181106108ae576108ae612f22565b90506020020160208101906108c39190612b52565b6040517fffffffff0000000000000000000000000000000000000000000000000000000060e084901b16815267ffffffffffffffff909116600482015260240160c060405180830381865afa158015610920573d6000803e3d6000fd5b505050506040513d601f19601f820116820180604052508101906109449190612fd1565b9350509250508181600001514361095b91906130af565b61096591906130d7565b81602001516109749190613103565b61097e9086613103565b945050508061098c90613124565b905061087e565b5050600080600060fb60009054906101000a90046001600160a01b03166001600160a01b0316636739afca6040518163ffffffff1660e01b8152600401606060405180830381865afa1580156109ed573d6000803e3d6000fd5b505050506040513d601f19601f82011682018060405250810190610a119190612ebc565b9250925092506000610a5a60405180606001604052808667ffffffffffffffff1681526020018567ffffffffffffffff1681526020018467ffffffffffffffff16815250612300565b9050610a67878683612338565b8660600151955050505050505b949350505050565b6000610acb858585808060200260200160405190810160405280939291908181526020018383602002808284376000920191909152505060fb5487949392506001600160a01b03169050612068565b505060800151159392505050565b6001600160a01b037f0000000000000000000000000000000000000000000000000000000000000000163003610b7c5760405162461bcd60e51b815260206004820152602c60248201527f46756e6374696f6e206d7573742062652063616c6c6564207468726f7567682060448201527f64656c656761746563616c6c000000000000000000000000000000000000000060648201526084015b60405180910390fd5b7f00000000000000000000000000000000000000000000000000000000000000006001600160a01b0316610bd77f360894a13ba1a3210667c828492db98dca3e2076cc3735a920a3ca505d382bbc546001600160a01b031690565b6001600160a01b031614610c535760405162461bcd60e51b815260206004820152602c60248201527f46756e6374696f6e206d7573742062652063616c6c6564207468726f7567682060448201527f6163746976652070726f787900000000000000000000000000000000000000006064820152608401610b73565b610c5c816123e9565b60408051600080825260208201909252610c78918391906123f1565b50565b6001600160a01b037f0000000000000000000000000000000000000000000000000000000000000000163003610d195760405162461bcd60e51b815260206004820152602c60248201527f46756e6374696f6e206d7573742062652063616c6c6564207468726f7567682060448201527f64656c656761746563616c6c00000000000000000000000000000000000000006064820152608401610b73565b7f00000000000000000000000000000000000000000000000000000000000000006001600160a01b0316610d747f360894a13ba1a3210667c828492db98dca3e2076cc3735a920a3ca505d382bbc546001600160a01b031690565b6001600160a01b031614610df05760405162461bcd60e51b815260206004820152602c60248201527f46756e6374696f6e206d7573742062652063616c6c6564207468726f7567682060448201527f6163746976652070726f787900000000000000000000000000000000000000006064820152608401610b73565b610df9826123e9565b610e05828260016123f1565b5050565b6000306001600160a01b037f00000000000000000000000000000000000000000000000000000000000000001614610ea95760405162461bcd60e51b815260206004820152603860248201527f555550535570677261646561626c653a206d757374206e6f742062652063616c60448201527f6c6564207468726f7567682064656c656761746563616c6c00000000000000006064820152608401610b73565b507f360894a13ba1a3210667c828492db98dca3e2076cc3735a920a3ca505d382bbc90565b600061081b60fb60009054906101000a90046001600160a01b03166001600160a01b031663d70cae7e6040518163ffffffff1660e01b8152600401602060405180830381865afa158015610f26573d6000803e3d6000fd5b505050506040513d601f19601f82011682018060405250810190610f4a9190612fb4565b67ffffffffffffffff16612049565b60fb54604080517f9ccfd31500000000000000000000000000000000000000000000000000000000815290516000926001600160a01b031691639ccfd3159160048083019260209291908290030181865afa1580156107f7573d6000803e3d6000fd5b60fb546040516325fe623760e21b815267ffffffffffffffff8316600482015260009182918291829182916001600160a01b0316906397f988dc9060240160c060405180830381865afa158015611017573d6000803e3d6000fd5b505050506040513d601f19601f8201168201806040525081019061103b9190612fd1565b935093509350935060006040518060800160405280866001600160a01b031681526020018567ffffffffffffffff1681526020018463ffffffff1681526020016040518060600160405280856000015167ffffffffffffffff168152602001856020015167ffffffffffffffff168152602001856040015167ffffffffffffffff1681525081525090506110ce81612596565b6110e981606001516040015167ffffffffffffffff16612049565b979650505050505050565b6110fc612628565b6111066000612682565b565b60008060008060fb60009054906101000a90046001600160a01b03166001600160a01b0316634162169f6040518163ffffffff1660e01b8152600401606060405180830381865afa158015611161573d6000803e3d6000fd5b505050506040513d601f19601f82011682018060405250810190611185919061315c565b604080516060808201835263ffffffff8616825267ffffffffffffffff808616602084015284168284015260fb5483517f6739afca0000000000000000000000000000000000000000000000000000000081529351969950949750929550936000936001600160a01b031692636739afca92600480820193918290030181865afa158015611217573d6000803e3d6000fd5b505050506040513d601f19601f8201168201806040525081019061123b9190612ebc565b5090915061124e9050610f4a83836126a8565b9550505050505090565b60c95433906001600160a01b031681146112da5760405162461bcd60e51b815260206004820152602960248201527f4f776e61626c6532537465703a2063616c6c6572206973206e6f74207468652060448201527f6e6577206f776e657200000000000000000000000000000000000000000000006064820152608401610b73565b610c7881612682565b60fb54604080517fa8e8991600000000000000000000000000000000000000000000000000000000815290516000926001600160a01b03169163a8e899169160048083019260209291908290030181865afa1580156107f7573d6000803e3d6000fd5b60fb546040516325fe623760e21b815267ffffffffffffffff83166004820152600091829182916001600160a01b0316906397f988dc9060240160c060405180830381865afa15801561139d573d6000803e3d6000fd5b505050506040513d601f19601f820116820180604052508101906113c19190612fd1565b935050925050806000015167ffffffffffffffff1660000361140f576040517f961e3e8c00000000000000000000000000000000000000000000000000000000815260040160405180910390fd5b610a748267ffffffffffffffff16612049565b60fb546040516000918291829182916001600160a01b039091169063350cfc5590611450908990899061317c565b60405190819003812060e083901b7fffffffff0000000000000000000000000000000000000000000000000000000016825260048201526024016040805180830381865afa1580156114a6573d6000803e3d6000fd5b505050506040513d601f19601f820116820180604052508101906114ca919061318c565b9097909650945050505050565b6000611526858585808060200260200160405190810160405280939291908181526020018383602002808284376000920191909152505060fb5487949392506001600160a01b03169050612068565b50816080015161153857506000610a74565b60008084815b8181101561165f5760fb5460009081906001600160a01b03166397f988dc8b8b8681811061156e5761156e612f22565b90506020020160208101906115839190612b52565b6040517fffffffff0000000000000000000000000000000000000000000000000000000060e084901b16815267ffffffffffffffff909116600482015260240160c060405180830381865afa1580156115e0573d6000803e3d6000fd5b505050506040513d601f19601f820116820180604052508101906116049190612fd1565b9350509250508181600001514361161b91906130af565b61162591906130d7565b81602001516116349190613103565b61163e9087613103565b955061164a8286613103565b945050508061165890613124565b905061153e565b50600080600060fb60009054906101000a90046001600160a01b03166001600160a01b0316636739afca6040518163ffffffff1660e01b8152600401606060405180830381865afa1580156116b8573d6000803e3d6000fd5b505050506040513d601f19601f820116820180604052508101906116dc9190612ebc565b92509250925061172f8661172760405180606001604052808767ffffffffffffffff1681526020018667ffffffffffffffff1681526020018567ffffffffffffffff16815250612300565b8a9190612338565b61182c858460fb60009054906101000a90046001600160a01b03166001600160a01b031663a8e899166040518163ffffffff1660e01b8152600401602060405180830381865afa158015611787573d6000803e3d6000fd5b505050506040513d601f19601f820116820180604052508101906117ab9190612fb4565b60fb60009054906101000a90046001600160a01b03166001600160a01b031663d70cae7e6040518163ffffffff1660e01b8152600401602060405180830381865afa1580156117fe573d6000803e3d6000fd5b505050506040513d601f19601f820116820180604052508101906118229190612fb4565b8c939291906126f0565b9b9a5050505050505050505050565b60fb546040516325fe623760e21b815267ffffffffffffffff83166004820152600091829182918291829182918291829182916001600160a01b0316906397f988dc9060240160c060405180830381865afa15801561189e573d6000803e3d6000fd5b505050506040513d601f19601f820116820180604052508101906118c29190612fd1565b60fb546040517f3ee7dd4e000000000000000000000000000000000000000000000000000000008152949850929650909450925060009182916001600160a01b031690633ee7dd4e90611929908f9060040167ffffffffffffffff91909116815260200190565b602060405180830381865afa158015611946573d6000803e3d6000fd5b505050506040513d601f19601f8201168201806040525081019061196a91906131c6565b6001600160a01b03161461197f576001611982565b60005b825190915060009067ffffffffffffffff16156119a05760016119a3565b60005b9050856119b98667ffffffffffffffff16612049565b909d909c50939a50909850965090945050505050565b600054610100900460ff16158080156119ef5750600054600160ff909116105b80611a095750303b158015611a09575060005460ff166001145b611a7b5760405162461bcd60e51b815260206004820152602e60248201527f496e697469616c697a61626c653a20636f6e747261637420697320616c72656160448201527f647920696e697469616c697a65640000000000000000000000000000000000006064820152608401610b73565b600080547fffffffffffffffffffffffffffffffffffffffffffffffffffffffffffffff001660011790558015611abc576000805461ff0019166101001790555b6001600160a01b037f0000000000000000000000000000000000000000000000000000000000000000163003611b5a5760405162461bcd60e51b815260206004820152602c60248201527f46756e6374696f6e206d7573742062652063616c6c6564207468726f7567682060448201527f64656c656761746563616c6c00000000000000000000000000000000000000006064820152608401610b73565b7f00000000000000000000000000000000000000000000000000000000000000006001600160a01b0316611bb57f360894a13ba1a3210667c828492db98dca3e2076cc3735a920a3ca505d382bbc546001600160a01b031690565b6001600160a01b031614611c315760405162461bcd60e51b815260206004820152602c60248201527f46756e6374696f6e206d7573742062652063616c6c6564207468726f7567682060448201527f6163746976652070726f787900000000000000000000000000000000000000006064820152608401610b73565b611c39612769565b611c416127e6565b60fb805473ffffffffffffffffffffffffffffffffffffffff19166001600160a01b0384161790558015610e05576000805461ff0019169055604051600181527f7f26b83ff96e1f2b6a682f133852f6798a09c465da95921460cefb38474024989060200160405180910390a15050565b60fb54604080517fac4f287300000000000000000000000000000000000000000000000000000000815290516000926001600160a01b03169163ac4f28739160048083019260209291908290030181865afa1580156107f7573d6000803e3d6000fd5b611d1d612628565b60c980546001600160a01b03831673ffffffffffffffffffffffffffffffffffffffff199091168117909155611d5b6097546001600160a01b031690565b6001600160a01b03167f38d16b8cac22d99fc7c124b9cd0de2d3fa1faef420bfe791d8c362d765e2270060405160405180910390a350565b6000611de2858585808060200260200160405190810160405280939291908181526020018383602002808284376000920191909152505060fb5487949392506001600160a01b03169050612068565b50600083815b81811015611ee45760fb5460009081906001600160a01b03166397f988dc8a8a86818110611e1857611e18612f22565b9050602002016020810190611e2d9190612b52565b6040517fffffffff0000000000000000000000000000000000000000000000000000000060e084901b16815267ffffffffffffffff909116600482015260240160c060405180830381865afa158015611e8a573d6000803e3d6000fd5b505050506040513d601f19601f82011682018060405250810190611eae9190612fd1565b509193509150506001600160a01b03821615611ed157611ece8186613103565b94505b505080611edd90613124565b9050611de8565b5060fb54604080517f6739afca00000000000000000000000000000000000000000000000000000000815290516000926001600160a01b031691636739afca9160048083019260609291908290030181865afa158015611f48573d6000803e3d6000fd5b505050506040513d601f19601f82011682018060405250810190611f6c9190612ebc565b5050855190915060009063ffffffff16611f868386613103565b611f9091906130d7565b9050611fa58167ffffffffffffffff16612049565b9998505050505050505050565b60008060fb60009054906101000a90046001600160a01b03166001600160a01b0316636739afca6040518163ffffffff1660e01b8152600401606060405180830381865afa158015612008573d6000803e3d6000fd5b505050506040513d601f19601f8201168201806040525081019061202c9190612ebc565b505090506120438167ffffffffffffffff16612049565b91505090565b60006120626298968067ffffffffffffffff84166131e3565b92915050565b600080848460405160200161207e9291906131fa565b60408051808303601f19018152828252805160209182012089518a830151938b015160608c015160808d015160e09390931b7fffffffff00000000000000000000000000000000000000000000000000000000169487019490945260c094851b7fffffffffffffffff0000000000000000000000000000000000000000000000009081166024880152941b909316602c850152603484019190915290151560f81b6054830152915060009060550160408051808303601f190181529082905280516020909101207f2e41e2e80000000000000000000000000000000000000000000000000000000082526004820184905291506000906001600160a01b03861690632e41e2e890602401602060405180830381865afa1580156121a5573d6000803e3d6000fd5b505050506040513d601f19601f820116820180604052508101906121c99190612f09565b03612200576040517f185e2b1600000000000000000000000000000000000000000000000000000000815260040160405180910390fd5b6040517f2e41e2e80000000000000000000000000000000000000000000000000000000081526004810183905281906001600160a01b03861690632e41e2e890602401602060405180830381865afa158015612260573d6000803e3d6000fd5b505050506040513d601f19601f820116820180604052508101906122849190612f09565b146122bb576040517f12e04c8700000000000000000000000000000000000000000000000000000000815260040160405180910390fd5b5095945050505050565b8060800151610c78576040517f95a0cf3300000000000000000000000000000000000000000000000000000000815260040160405180910390fd5b805160408201516000919061231f9067ffffffffffffffff1643613265565b61232991906130d7565b82602001516120629190613103565b8251602084015160009163ffffffff169061235390846130af565b61235d91906130d7565b9050600081856000015163ffffffff1686604001518661237d91906130af565b61238791906130d7565b6123919190613103565b905084606001516123ab8267ffffffffffffffff16612049565b116123d7576123c38167ffffffffffffffff16612049565b85606001516123d29190613265565b6123da565b60005b60609095019490945250505050565b610c78612628565b7f4910fdfa16fed3260ed0e7147f7cc6da11a60208b5b9406d12a635614ffd91435460ff1615612429576124248361286c565b505050565b826001600160a01b03166352d1902d6040518163ffffffff1660e01b8152600401602060405180830381865afa925050508015612483575060408051601f3d908101601f1916820190925261248091810190612f09565b60015b6124f55760405162461bcd60e51b815260206004820152602e60248201527f45524331393637557067726164653a206e657720696d706c656d656e7461746960448201527f6f6e206973206e6f7420555550530000000000000000000000000000000000006064820152608401610b73565b7f360894a13ba1a3210667c828492db98dca3e2076cc3735a920a3ca505d382bbc811461258a5760405162461bcd60e51b815260206004820152602960248201527f45524331393637557067726164653a20756e737570706f727465642070726f7860448201527f6961626c655555494400000000000000000000000000000000000000000000006064820152608401610b73565b50612424838383612937565b6020810151606082015151600091906125af90436130af565b6125b991906130d7565b90508082606001516020018181516125d19190613103565b67ffffffffffffffff1690525060408201516125f39063ffffffff16826130d7565b82606001516040018181516126089190613103565b67ffffffffffffffff908116909152606090930151439093169092525050565b6097546001600160a01b031633146111065760405162461bcd60e51b815260206004820181905260248201527f4f776e61626c653a2063616c6c6572206973206e6f7420746865206f776e65726044820152606401610b73565b60c9805473ffffffffffffffffffffffffffffffffffffffff19169055610c7881612962565b6000826000015163ffffffff16828460400151436126c691906130af565b6126d091906130d7565b6126da91906130d7565b83602001516126e99190613103565b9392505050565b60006127058267ffffffffffffffff16612049565b8660600151101561271857506001612760565b855160009063ffffffff1661272d8688613103565b61273790866130d7565b61274191906130d7565b90506127568167ffffffffffffffff16612049565b8760600151109150505b95945050505050565b600054610100900460ff166111065760405162461bcd60e51b815260206004820152602b60248201527f496e697469616c697a61626c653a20636f6e7472616374206973206e6f74206960448201527f6e697469616c697a696e670000000000000000000000000000000000000000006064820152608401610b73565b600054610100900460ff166128635760405162461bcd60e51b815260206004820152602b60248201527f496e697469616c697a61626c653a20636f6e7472616374206973206e6f74206960448201527f6e697469616c697a696e670000000000000000000000000000000000000000006064820152608401610b73565b61110633612682565b6001600160a01b0381163b6128e95760405162461bcd60e51b815260206004820152602d60248201527f455243313936373a206e657720696d706c656d656e746174696f6e206973206e60448201527f6f74206120636f6e7472616374000000000000000000000000000000000000006064820152608401610b73565b7f360894a13ba1a3210667c828492db98dca3e2076cc3735a920a3ca505d382bbc805473ffffffffffffffffffffffffffffffffffffffff19166001600160a01b0392909216919091179055565b612940836129c1565b60008251118061294d5750805b156124245761295c8383612a01565b50505050565b609780546001600160a01b0383811673ffffffffffffffffffffffffffffffffffffffff19831681179093556040519116919082907f8be0079c531659141344cd1fd0a4f28419497f9722a3daafe3b4186f6b6457e090600090a35050565b6129ca8161286c565b6040516001600160a01b038216907fbc7cd75a20ee27fd9adebab32041f755214dbc6bffa90cc0225b39da2e5c2d3b90600090a250565b60606001600160a01b0383163b612a805760405162461bcd60e51b815260206004820152602660248201527f416464726573733a2064656c65676174652063616c6c20746f206e6f6e2d636f60448201527f6e747261637400000000000000000000000000000000000000000000000000006064820152608401610b73565b600080846001600160a01b031684604051612a9b9190613278565b600060405180830381855af49150503d8060008114612ad6576040519150601f19603f3d011682016040523d82523d6000602084013e612adb565b606091505b509150915061276082826040518060600160405280602781526020016132956027913960608315612b0d5750816126e9565b6126e98383815115612b225781518083602001fd5b8060405162461bcd60e51b8152600401610b739190612b93565b67ffffffffffffffff81168114610c7857600080fd5b600060208284031215612b6457600080fd5b81356126e981612b3c565b60005b83811015612b8a578181015183820152602001612b72565b50506000910152565b6020815260008251806020840152612bb2816040850160208701612b6f565b601f01601f19169190910160400192915050565b6001600160a01b0381168114610c7857600080fd5b634e487b7160e01b600052604160045260246000fd5b60405160a0810167ffffffffffffffff81118282101715612c1457612c14612bdb565b60405290565b604051601f8201601f1916810167ffffffffffffffff81118282101715612c4357612c43612bdb565b604052919050565b63ffffffff81168114610c7857600080fd5b8015158114610c7857600080fd5b60008060008084860360e0811215612c8257600080fd5b8535612c8d81612bc6565b9450602086013567ffffffffffffffff80821115612caa57600080fd5b818801915088601f830112612cbe57600080fd5b813581811115612ccd57600080fd5b8960208260051b8501011115612ce257600080fd5b60208301965080955050505060a07fffffffffffffffffffffffffffffffffffffffffffffffffffffffffffffffc082011215612d1e57600080fd5b50612d27612bf1565b6040860135612d3581612c4b565b81526060860135612d4581612b3c565b60208201526080860135612d5881612b3c565b604082015260a0860135606082015260c0860135612d7581612c5d565b6080820152939692955090935050565b600060208284031215612d9757600080fd5b81356126e981612bc6565b60008060408385031215612db557600080fd5b8235612dc081612bc6565b915060208381013567ffffffffffffffff80821115612dde57600080fd5b818601915086601f830112612df257600080fd5b813581811115612e0457612e04612bdb565b612e1684601f19601f84011601612c1a565b91508082528784828501011115612e2c57600080fd5b80848401858401376000848284010152508093505050509250929050565b60008060208385031215612e5d57600080fd5b823567ffffffffffffffff80821115612e7557600080fd5b818501915085601f830112612e8957600080fd5b813581811115612e9857600080fd5b866020828501011115612eaa57600080fd5b60209290920196919550909350505050565b600080600060608486031215612ed157600080fd5b8351612edc81612b3c565b6020850151909350612eed81612b3c565b6040850151909250612efe81612b3c565b809150509250925092565b600060208284031215612f1b57600080fd5b5051919050565b634e487b7160e01b600052603260045260246000fd5b60008351612f4a818460208801612b6f565b7fff00000000000000000000000000000000000000000000000000000000000000939093169190920190815260010192915050565b634e487b7160e01b600052601160045260246000fd5b600060ff821660ff8103612fab57612fab612f7f565b60010192915050565b600060208284031215612fc657600080fd5b81516126e981612b3c565b60008060008084860360c0811215612fe857600080fd5b8551612ff381612bc6565b602087015190955061300481612b3c565b604087015190945061301581612c4b565b925060607fffffffffffffffffffffffffffffffffffffffffffffffffffffffffffffffa08201121561304757600080fd5b506040516060810181811067ffffffffffffffff8211171561306b5761306b612bdb565b604052606086015161307c81612b3c565b8152608086015161308c81612b3c565b602082015260a086015161309f81612b3c565b6040820152939692955090935050565b67ffffffffffffffff8281168282160390808211156130d0576130d0612f7f565b5092915050565b67ffffffffffffffff8181168382160280821691908281146130fb576130fb612f7f565b505092915050565b67ffffffffffffffff8181168382160190808211156130d0576130d0612f7f565b60007fffffffffffffffffffffffffffffffffffffffffffffffffffffffffffffffff820361315557613155612f7f565b5060010190565b60008060006060848603121561317157600080fd5b8351612edc81612c4b565b8183823760009101908152919050565b6000806040838503121561319f57600080fd5b82516131aa81612bc6565b60208401519092506131bb81612c5d565b809150509250929050565b6000602082840312156131d857600080fd5b81516126e981612bc6565b808202811582820484141761206257612062612f7f565b7fffffffffffffffffffffffffffffffffffffffff0000000000000000000000008360601b1681526000601482018351602080860160005b8381101561325857815167ffffffffffffffff1685529382019390820190600101613232565b5092979650505050505050565b8181038181111561206257612062612f7f565b6000825161328a818460208701612b6f565b919091019291505056fe416464726573733a206c6f772d6c6576656c2064656c65676174652063616c6c206661696c6564a2646970667358221220a06f22ef1aa427ad8ed1e32bee7282322ec3de05a1bd66509d72879b674189ba64736f6c63430008120033",
  "linkReferences": {},
  "deployedLinkReferences": {}
}