{
  "_format": "hh-sol-artifact-1",
  "contractName": "SSVNetwork",
  "sourceName": "contracts/SSVNetwork.sol",
  "abi": [
    {
      "inputs": [],
      "name": "ApprovalNotWithinTimeframe",
      "type": "error"
    },
    {
      "inputs": [],
      "name": "CallerNotOwner",
      "type": "error"
    },
    {
      "inputs": [],
      "name": "CallerNotWhitelisted",
      "type": "error"
    },
    {
      "inputs": [],
      "name": "ClusterAlreadyEnabled",
      "type": "error"
    },
    {
      "inputs": [],
      "name": "ClusterDoesNotExists",
      "type": "error"
    },
    {
      "inputs": [],
      "name": "ClusterIsLiquidated",
      "type": "error"
    },
    {
      "inputs": [],
      "name": "ClusterNotLiquidatable",
      "type": "error"
    },
    {
      "inputs": [],
      "name": "ExceedValidatorLimit",
      "type": "error"
    },
    {
      "inputs": [],
      "name": "FeeExceedsIncreaseLimit",
      "type": "error"
    },
    {
      "inputs": [],
      "name": "FeeIncreaseNotAllowed",
      "type": "error"
    },
    {
      "inputs": [],
      "name": "FeeTooLow",
      "type": "error"
    },
    {
      "inputs": [],
      "name": "IncorrectClusterState",
      "type": "error"
    },
    {
      "inputs": [],
      "name": "InsufficientBalance",
      "type": "error"
    },
    {
      "inputs": [],
      "name": "InvalidOperatorIdsLength",
      "type": "error"
    },
    {
      "inputs": [],
      "name": "InvalidPublicKeyLength",
      "type": "error"
    },
    {
      "inputs": [],
      "name": "NewBlockPeriodIsBelowMinimum",
      "type": "error"
    },
    {
      "inputs": [],
      "name": "NoFeeDelcared",
      "type": "error"
    },
    {
      "inputs": [],
      "name": "OperatorDoesNotExist",
      "type": "error"
    },
    {
      "inputs": [],
      "name": "SameFeeChangeNotAllowed",
      "type": "error"
    },
    {
      "inputs": [],
      "name": "TokenTransferFailed",
      "type": "error"
    },
    {
      "inputs": [],
      "name": "UnsortedOperatorsList",
      "type": "error"
    },
    {
      "inputs": [],
      "name": "ValidatorAlreadyExists",
      "type": "error"
    },
    {
      "inputs": [],
      "name": "ValidatorDoesNotExist",
      "type": "error"
    },
    {
      "inputs": [],
      "name": "ValidatorOwnedByOtherAddress",
      "type": "error"
    },
    {
      "anonymous": false,
      "inputs": [
        {
          "indexed": false,
          "internalType": "address",
          "name": "previousAdmin",
          "type": "address"
        },
        {
          "indexed": false,
          "internalType": "address",
          "name": "newAdmin",
          "type": "address"
        }
      ],
      "name": "AdminChanged",
      "type": "event"
    },
    {
      "anonymous": false,
      "inputs": [
        {
          "indexed": true,
          "internalType": "address",
          "name": "beacon",
          "type": "address"
        }
      ],
      "name": "BeaconUpgraded",
      "type": "event"
    },
    {
      "anonymous": false,
      "inputs": [
        {
          "indexed": true,
          "internalType": "address",
          "name": "owner",
          "type": "address"
        },
        {
          "indexed": false,
          "internalType": "uint64[]",
          "name": "operatorIds",
          "type": "uint64[]"
        },
        {
          "indexed": false,
          "internalType": "uint256",
          "name": "value",
          "type": "uint256"
        },
        {
          "components": [
            {
              "internalType": "uint32",
              "name": "validatorCount",
              "type": "uint32"
            },
            {
              "internalType": "uint64",
              "name": "networkFeeIndex",
              "type": "uint64"
            },
            {
              "internalType": "uint64",
              "name": "index",
              "type": "uint64"
            },
            {
              "internalType": "uint256",
              "name": "balance",
              "type": "uint256"
            },
            {
              "internalType": "bool",
              "name": "active",
              "type": "bool"
            }
          ],
          "indexed": false,
          "internalType": "struct ISSVNetworkCore.Cluster",
          "name": "cluster",
          "type": "tuple"
        }
      ],
      "name": "ClusterDeposited",
      "type": "event"
    },
    {
      "anonymous": false,
      "inputs": [
        {
          "indexed": true,
          "internalType": "address",
          "name": "owner",
          "type": "address"
        },
        {
          "indexed": false,
          "internalType": "uint64[]",
          "name": "operatorIds",
          "type": "uint64[]"
        },
        {
          "components": [
            {
              "internalType": "uint32",
              "name": "validatorCount",
              "type": "uint32"
            },
            {
              "internalType": "uint64",
              "name": "networkFeeIndex",
              "type": "uint64"
            },
            {
              "internalType": "uint64",
              "name": "index",
              "type": "uint64"
            },
            {
              "internalType": "uint256",
              "name": "balance",
              "type": "uint256"
            },
            {
              "internalType": "bool",
              "name": "active",
              "type": "bool"
            }
          ],
          "indexed": false,
          "internalType": "struct ISSVNetworkCore.Cluster",
          "name": "cluster",
          "type": "tuple"
        }
      ],
      "name": "ClusterLiquidated",
      "type": "event"
    },
    {
      "anonymous": false,
      "inputs": [
        {
          "indexed": true,
          "internalType": "address",
          "name": "owner",
          "type": "address"
        },
        {
          "indexed": false,
          "internalType": "uint64[]",
          "name": "operatorIds",
          "type": "uint64[]"
        },
        {
          "components": [
            {
              "internalType": "uint32",
              "name": "validatorCount",
              "type": "uint32"
            },
            {
              "internalType": "uint64",
              "name": "networkFeeIndex",
              "type": "uint64"
            },
            {
              "internalType": "uint64",
              "name": "index",
              "type": "uint64"
            },
            {
              "internalType": "uint256",
              "name": "balance",
              "type": "uint256"
            },
            {
              "internalType": "bool",
              "name": "active",
              "type": "bool"
            }
          ],
          "indexed": false,
          "internalType": "struct ISSVNetworkCore.Cluster",
          "name": "cluster",
          "type": "tuple"
        }
      ],
      "name": "ClusterReactivated",
      "type": "event"
    },
    {
      "anonymous": false,
      "inputs": [
        {
          "indexed": true,
          "internalType": "address",
          "name": "owner",
          "type": "address"
        },
        {
          "indexed": false,
          "internalType": "uint64[]",
          "name": "operatorIds",
          "type": "uint64[]"
        },
        {
          "indexed": false,
          "internalType": "uint256",
          "name": "value",
          "type": "uint256"
        },
        {
          "components": [
            {
              "internalType": "uint32",
              "name": "validatorCount",
              "type": "uint32"
            },
            {
              "internalType": "uint64",
              "name": "networkFeeIndex",
              "type": "uint64"
            },
            {
              "internalType": "uint64",
              "name": "index",
              "type": "uint64"
            },
            {
              "internalType": "uint256",
              "name": "balance",
              "type": "uint256"
            },
            {
              "internalType": "bool",
              "name": "active",
              "type": "bool"
            }
          ],
          "indexed": false,
          "internalType": "struct ISSVNetworkCore.Cluster",
          "name": "cluster",
          "type": "tuple"
        }
      ],
      "name": "ClusterWithdrawn",
      "type": "event"
    },
    {
      "anonymous": false,
      "inputs": [
        {
          "indexed": false,
          "internalType": "uint64",
          "name": "value",
          "type": "uint64"
        }
      ],
      "name": "DeclareOperatorFeePeriodUpdated",
      "type": "event"
    },
    {
      "anonymous": false,
      "inputs": [
        {
          "indexed": false,
          "internalType": "uint64",
          "name": "value",
          "type": "uint64"
        }
      ],
      "name": "ExecuteOperatorFeePeriodUpdated",
      "type": "event"
    },
    {
      "anonymous": false,
      "inputs": [
        {
          "indexed": true,
          "internalType": "address",
          "name": "owner",
          "type": "address"
        },
        {
          "indexed": false,
          "internalType": "address",
          "name": "recipientAddress",
          "type": "address"
        }
      ],
      "name": "FeeRecipientAddressUpdated",
      "type": "event"
    },
    {
      "anonymous": false,
      "inputs": [
        {
          "indexed": false,
          "internalType": "uint8",
          "name": "version",
          "type": "uint8"
        }
      ],
      "name": "Initialized",
      "type": "event"
    },
    {
      "anonymous": false,
      "inputs": [
        {
          "indexed": false,
          "internalType": "uint64",
          "name": "value",
          "type": "uint64"
        }
      ],
      "name": "LiquidationThresholdPeriodUpdated",
      "type": "event"
    },
    {
      "anonymous": false,
      "inputs": [
        {
          "indexed": false,
          "internalType": "uint256",
          "name": "value",
          "type": "uint256"
        }
      ],
      "name": "MinimumLiquidationCollateralUpdated",
      "type": "event"
    },
    {
      "anonymous": false,
      "inputs": [
        {
          "indexed": false,
          "internalType": "uint256",
          "name": "value",
          "type": "uint256"
        },
        {
          "indexed": false,
          "internalType": "address",
          "name": "recipient",
          "type": "address"
        }
      ],
      "name": "NetworkEarningsWithdrawn",
      "type": "event"
    },
    {
      "anonymous": false,
      "inputs": [
        {
          "indexed": false,
          "internalType": "uint256",
          "name": "oldFee",
          "type": "uint256"
        },
        {
          "indexed": false,
          "internalType": "uint256",
          "name": "newFee",
          "type": "uint256"
        }
      ],
      "name": "NetworkFeeUpdated",
      "type": "event"
    },
    {
      "anonymous": false,
      "inputs": [
        {
          "indexed": true,
          "internalType": "uint64",
          "name": "operatorId",
          "type": "uint64"
        },
        {
          "indexed": true,
          "internalType": "address",
          "name": "owner",
          "type": "address"
        },
        {
          "indexed": false,
          "internalType": "bytes",
          "name": "publicKey",
          "type": "bytes"
        },
        {
          "indexed": false,
          "internalType": "uint256",
          "name": "fee",
          "type": "uint256"
        }
      ],
      "name": "OperatorAdded",
      "type": "event"
    },
    {
      "anonymous": false,
      "inputs": [
        {
          "indexed": true,
          "internalType": "address",
          "name": "owner",
          "type": "address"
        },
        {
          "indexed": true,
          "internalType": "uint64",
          "name": "operatorId",
          "type": "uint64"
        }
      ],
      "name": "OperatorFeeCancellationDeclared",
      "type": "event"
    },
    {
      "anonymous": false,
      "inputs": [
        {
          "indexed": true,
          "internalType": "address",
          "name": "owner",
          "type": "address"
        },
        {
          "indexed": true,
          "internalType": "uint64",
          "name": "operatorId",
          "type": "uint64"
        },
        {
          "indexed": false,
          "internalType": "uint256",
          "name": "blockNumber",
          "type": "uint256"
        },
        {
          "indexed": false,
          "internalType": "uint256",
          "name": "fee",
          "type": "uint256"
        }
      ],
      "name": "OperatorFeeDeclared",
      "type": "event"
    },
    {
      "anonymous": false,
      "inputs": [
        {
          "indexed": true,
          "internalType": "address",
          "name": "owner",
          "type": "address"
        },
        {
          "indexed": true,
          "internalType": "uint64",
          "name": "operatorId",
          "type": "uint64"
        },
        {
          "indexed": false,
          "internalType": "uint256",
          "name": "blockNumber",
          "type": "uint256"
        },
        {
          "indexed": false,
          "internalType": "uint256",
          "name": "fee",
          "type": "uint256"
        }
      ],
      "name": "OperatorFeeExecuted",
      "type": "event"
    },
    {
      "anonymous": false,
      "inputs": [
        {
          "indexed": false,
          "internalType": "uint64",
          "name": "value",
          "type": "uint64"
        }
      ],
      "name": "OperatorFeeIncreaseLimitUpdated",
      "type": "event"
    },
    {
      "anonymous": false,
      "inputs": [
        {
          "indexed": true,
          "internalType": "uint64",
          "name": "operatorId",
          "type": "uint64"
        }
      ],
      "name": "OperatorRemoved",
      "type": "event"
    },
    {
      "anonymous": false,
      "inputs": [
        {
          "indexed": true,
          "internalType": "uint64",
          "name": "operatorId",
          "type": "uint64"
        },
        {
          "indexed": false,
          "internalType": "address",
          "name": "whitelisted",
          "type": "address"
        }
      ],
      "name": "OperatorWhitelistUpdated",
      "type": "event"
    },
    {
      "anonymous": false,
      "inputs": [
        {
          "indexed": true,
          "internalType": "address",
          "name": "owner",
          "type": "address"
        },
        {
          "indexed": true,
          "internalType": "uint64",
          "name": "operatorId",
          "type": "uint64"
        },
        {
          "indexed": false,
          "internalType": "uint256",
          "name": "value",
          "type": "uint256"
        }
      ],
      "name": "OperatorWithdrawn",
      "type": "event"
    },
    {
      "anonymous": false,
      "inputs": [
        {
          "indexed": true,
          "internalType": "address",
          "name": "previousOwner",
          "type": "address"
        },
        {
          "indexed": true,
          "internalType": "address",
          "name": "newOwner",
          "type": "address"
        }
      ],
      "name": "OwnershipTransferStarted",
      "type": "event"
    },
    {
      "anonymous": false,
      "inputs": [
        {
          "indexed": true,
          "internalType": "address",
          "name": "previousOwner",
          "type": "address"
        },
        {
          "indexed": true,
          "internalType": "address",
          "name": "newOwner",
          "type": "address"
        }
      ],
      "name": "OwnershipTransferred",
      "type": "event"
    },
    {
      "anonymous": false,
      "inputs": [
        {
          "indexed": true,
          "internalType": "address",
          "name": "implementation",
          "type": "address"
        }
      ],
      "name": "Upgraded",
      "type": "event"
    },
    {
      "anonymous": false,
      "inputs": [
        {
          "indexed": true,
          "internalType": "address",
          "name": "owner",
          "type": "address"
        },
        {
          "indexed": false,
          "internalType": "uint64[]",
          "name": "operatorIds",
          "type": "uint64[]"
        },
        {
          "indexed": false,
          "internalType": "bytes",
          "name": "publicKey",
          "type": "bytes"
        },
        {
          "indexed": false,
          "internalType": "bytes",
          "name": "shares",
          "type": "bytes"
        },
        {
          "components": [
            {
              "internalType": "uint32",
              "name": "validatorCount",
              "type": "uint32"
            },
            {
              "internalType": "uint64",
              "name": "networkFeeIndex",
              "type": "uint64"
            },
            {
              "internalType": "uint64",
              "name": "index",
              "type": "uint64"
            },
            {
              "internalType": "uint256",
              "name": "balance",
              "type": "uint256"
            },
            {
              "internalType": "bool",
              "name": "active",
              "type": "bool"
            }
          ],
          "indexed": false,
          "internalType": "struct ISSVNetworkCore.Cluster",
          "name": "cluster",
          "type": "tuple"
        }
      ],
      "name": "ValidatorAdded",
      "type": "event"
    },
    {
      "anonymous": false,
      "inputs": [
        {
          "indexed": true,
          "internalType": "address",
          "name": "owner",
          "type": "address"
        },
        {
          "indexed": false,
          "internalType": "uint64[]",
          "name": "operatorIds",
          "type": "uint64[]"
        },
        {
          "indexed": false,
          "internalType": "bytes",
          "name": "publicKey",
          "type": "bytes"
        },
        {
          "components": [
            {
              "internalType": "uint32",
              "name": "validatorCount",
              "type": "uint32"
            },
            {
              "internalType": "uint64",
              "name": "networkFeeIndex",
              "type": "uint64"
            },
            {
              "internalType": "uint64",
              "name": "index",
              "type": "uint64"
            },
            {
              "internalType": "uint256",
              "name": "balance",
              "type": "uint256"
            },
            {
              "internalType": "bool",
              "name": "active",
              "type": "bool"
            }
          ],
          "indexed": false,
          "internalType": "struct ISSVNetworkCore.Cluster",
          "name": "cluster",
          "type": "tuple"
        }
      ],
      "name": "ValidatorRemoved",
      "type": "event"
    },
    {
      "inputs": [],
      "name": "acceptOwnership",
      "outputs": [],
      "stateMutability": "nonpayable",
      "type": "function"
    },
    {
      "inputs": [
        {
          "internalType": "uint64",
          "name": "operatorId",
          "type": "uint64"
        }
      ],
      "name": "cancelDeclaredOperatorFee",
      "outputs": [],
      "stateMutability": "nonpayable",
      "type": "function"
    },
    {
      "inputs": [
        {
          "internalType": "bytes32",
          "name": "",
          "type": "bytes32"
        }
      ],
      "name": "clusters",
      "outputs": [
        {
          "internalType": "bytes32",
          "name": "",
          "type": "bytes32"
        }
      ],
      "stateMutability": "view",
      "type": "function"
    },
    {
      "inputs": [],
      "name": "dao",
      "outputs": [
        {
          "internalType": "uint32",
          "name": "validatorCount",
          "type": "uint32"
        },
        {
          "internalType": "uint64",
          "name": "balance",
          "type": "uint64"
        },
        {
          "internalType": "uint64",
          "name": "block",
          "type": "uint64"
        }
      ],
      "stateMutability": "view",
      "type": "function"
    },
    {
      "inputs": [
        {
          "internalType": "uint64",
          "name": "operatorId",
          "type": "uint64"
        },
        {
          "internalType": "uint256",
          "name": "fee",
          "type": "uint256"
        }
      ],
      "name": "declareOperatorFee",
      "outputs": [],
      "stateMutability": "nonpayable",
      "type": "function"
    },
    {
      "inputs": [],
      "name": "declareOperatorFeePeriod",
      "outputs": [
        {
          "internalType": "uint64",
          "name": "",
          "type": "uint64"
        }
      ],
      "stateMutability": "view",
      "type": "function"
    },
    {
      "inputs": [
        {
          "internalType": "address",
          "name": "owner",
          "type": "address"
        },
        {
          "internalType": "uint64[]",
          "name": "operatorIds",
          "type": "uint64[]"
        },
        {
          "internalType": "uint256",
          "name": "amount",
          "type": "uint256"
        },
        {
          "components": [
            {
              "internalType": "uint32",
              "name": "validatorCount",
              "type": "uint32"
            },
            {
              "internalType": "uint64",
              "name": "networkFeeIndex",
              "type": "uint64"
            },
            {
              "internalType": "uint64",
              "name": "index",
              "type": "uint64"
            },
            {
              "internalType": "uint256",
              "name": "balance",
              "type": "uint256"
            },
            {
              "internalType": "bool",
              "name": "active",
              "type": "bool"
            }
          ],
          "internalType": "struct ISSVNetworkCore.Cluster",
          "name": "cluster",
          "type": "tuple"
        }
      ],
      "name": "deposit",
      "outputs": [],
      "stateMutability": "nonpayable",
      "type": "function"
    },
    {
      "inputs": [
        {
          "internalType": "uint64",
          "name": "operatorId",
          "type": "uint64"
        }
      ],
      "name": "executeOperatorFee",
      "outputs": [],
      "stateMutability": "nonpayable",
      "type": "function"
    },
    {
      "inputs": [],
      "name": "executeOperatorFeePeriod",
      "outputs": [
        {
          "internalType": "uint64",
          "name": "",
          "type": "uint64"
        }
      ],
      "stateMutability": "view",
      "type": "function"
    },
    {
      "inputs": [
        {
          "internalType": "string",
          "name": "initialVersion_",
          "type": "string"
        },
        {
          "internalType": "contract IERC20",
          "name": "token_",
          "type": "address"
        },
        {
          "internalType": "uint64",
          "name": "operatorMaxFeeIncrease_",
          "type": "uint64"
        },
        {
          "internalType": "uint64",
          "name": "declareOperatorFeePeriod_",
          "type": "uint64"
        },
        {
          "internalType": "uint64",
          "name": "executeOperatorFeePeriod_",
          "type": "uint64"
        },
        {
          "internalType": "uint64",
          "name": "minimumBlocksBeforeLiquidation_",
          "type": "uint64"
        },
        {
          "internalType": "uint256",
          "name": "minimumLiquidationCollateral_",
          "type": "uint256"
        }
      ],
      "name": "initialize",
      "outputs": [],
      "stateMutability": "nonpayable",
      "type": "function"
    },
    {
      "inputs": [
        {
          "internalType": "address",
          "name": "owner",
          "type": "address"
        },
        {
          "internalType": "uint64[]",
          "name": "operatorIds",
          "type": "uint64[]"
        },
        {
          "components": [
            {
              "internalType": "uint32",
              "name": "validatorCount",
              "type": "uint32"
            },
            {
              "internalType": "uint64",
              "name": "networkFeeIndex",
              "type": "uint64"
            },
            {
              "internalType": "uint64",
              "name": "index",
              "type": "uint64"
            },
            {
              "internalType": "uint256",
              "name": "balance",
              "type": "uint256"
            },
            {
              "internalType": "bool",
              "name": "active",
              "type": "bool"
            }
          ],
          "internalType": "struct ISSVNetworkCore.Cluster",
          "name": "cluster",
          "type": "tuple"
        }
      ],
      "name": "liquidate",
      "outputs": [],
      "stateMutability": "nonpayable",
      "type": "function"
    },
    {
      "inputs": [],
      "name": "minimumBlocksBeforeLiquidation",
      "outputs": [
        {
          "internalType": "uint64",
          "name": "",
          "type": "uint64"
        }
      ],
      "stateMutability": "view",
      "type": "function"
    },
    {
      "inputs": [],
      "name": "minimumLiquidationCollateral",
      "outputs": [
        {
          "internalType": "uint64",
          "name": "",
          "type": "uint64"
        }
      ],
      "stateMutability": "view",
      "type": "function"
    },
    {
      "inputs": [],
      "name": "network",
      "outputs": [
        {
          "internalType": "uint64",
          "name": "networkFee",
          "type": "uint64"
        },
        {
          "internalType": "uint64",
          "name": "networkFeeIndex",
          "type": "uint64"
        },
        {
          "internalType": "uint64",
          "name": "networkFeeIndexBlockNumber",
          "type": "uint64"
        }
      ],
      "stateMutability": "view",
      "type": "function"
    },
    {
      "inputs": [
        {
          "internalType": "uint64",
          "name": "",
          "type": "uint64"
        }
      ],
      "name": "operatorFeeChangeRequests",
      "outputs": [
        {
          "internalType": "uint64",
          "name": "fee",
          "type": "uint64"
        },
        {
          "internalType": "uint64",
          "name": "approvalBeginTime",
          "type": "uint64"
        },
        {
          "internalType": "uint64",
          "name": "approvalEndTime",
          "type": "uint64"
        }
      ],
      "stateMutability": "view",
      "type": "function"
    },
    {
      "inputs": [],
      "name": "operatorMaxFeeIncrease",
      "outputs": [
        {
          "internalType": "uint64",
          "name": "",
          "type": "uint64"
        }
      ],
      "stateMutability": "view",
      "type": "function"
    },
    {
      "inputs": [
        {
          "internalType": "uint64",
          "name": "",
          "type": "uint64"
        }
      ],
      "name": "operators",
      "outputs": [
        {
          "internalType": "address",
          "name": "owner",
          "type": "address"
        },
        {
          "internalType": "uint64",
          "name": "fee",
          "type": "uint64"
        },
        {
          "internalType": "uint32",
          "name": "validatorCount",
          "type": "uint32"
        },
        {
          "components": [
            {
              "internalType": "uint64",
              "name": "block",
              "type": "uint64"
            },
            {
              "internalType": "uint64",
              "name": "index",
              "type": "uint64"
            },
            {
              "internalType": "uint64",
              "name": "balance",
              "type": "uint64"
            }
          ],
          "internalType": "struct ISSVNetworkCore.Snapshot",
          "name": "snapshot",
          "type": "tuple"
        }
      ],
      "stateMutability": "view",
      "type": "function"
    },
    {
      "inputs": [
        {
          "internalType": "uint64",
          "name": "",
          "type": "uint64"
        }
      ],
      "name": "operatorsWhitelist",
      "outputs": [
        {
          "internalType": "address",
          "name": "",
          "type": "address"
        }
      ],
      "stateMutability": "view",
      "type": "function"
    },
    {
      "inputs": [],
      "name": "owner",
      "outputs": [
        {
          "internalType": "address",
          "name": "",
          "type": "address"
        }
      ],
      "stateMutability": "view",
      "type": "function"
    },
    {
      "inputs": [],
      "name": "pendingOwner",
      "outputs": [
        {
          "internalType": "address",
          "name": "",
          "type": "address"
        }
      ],
      "stateMutability": "view",
      "type": "function"
    },
    {
      "inputs": [],
      "name": "proxiableUUID",
      "outputs": [
        {
          "internalType": "bytes32",
          "name": "",
          "type": "bytes32"
        }
      ],
      "stateMutability": "view",
      "type": "function"
    },
    {
      "inputs": [
        {
          "internalType": "uint64[]",
          "name": "operatorIds",
          "type": "uint64[]"
        },
        {
          "internalType": "uint256",
          "name": "amount",
          "type": "uint256"
        },
        {
          "components": [
            {
              "internalType": "uint32",
              "name": "validatorCount",
              "type": "uint32"
            },
            {
              "internalType": "uint64",
              "name": "networkFeeIndex",
              "type": "uint64"
            },
            {
              "internalType": "uint64",
              "name": "index",
              "type": "uint64"
            },
            {
              "internalType": "uint256",
              "name": "balance",
              "type": "uint256"
            },
            {
              "internalType": "bool",
              "name": "active",
              "type": "bool"
            }
          ],
          "internalType": "struct ISSVNetworkCore.Cluster",
          "name": "cluster",
          "type": "tuple"
        }
      ],
      "name": "reactivate",
      "outputs": [],
      "stateMutability": "nonpayable",
      "type": "function"
    },
    {
      "inputs": [
        {
          "internalType": "uint64",
          "name": "operatorId",
          "type": "uint64"
        },
        {
          "internalType": "uint256",
          "name": "fee",
          "type": "uint256"
        }
      ],
      "name": "reduceOperatorFee",
      "outputs": [],
      "stateMutability": "nonpayable",
      "type": "function"
    },
    {
      "inputs": [
        {
          "internalType": "bytes",
          "name": "publicKey",
          "type": "bytes"
        },
        {
          "internalType": "uint256",
          "name": "fee",
          "type": "uint256"
        }
      ],
      "name": "registerOperator",
      "outputs": [
        {
          "internalType": "uint64",
          "name": "id",
          "type": "uint64"
        }
      ],
      "stateMutability": "nonpayable",
      "type": "function"
    },
    {
      "inputs": [
        {
          "internalType": "bytes",
          "name": "publicKey",
          "type": "bytes"
        },
        {
          "internalType": "uint64[]",
          "name": "operatorIds",
          "type": "uint64[]"
        },
        {
          "internalType": "bytes",
          "name": "shares",
          "type": "bytes"
        },
        {
          "internalType": "uint256",
          "name": "amount",
          "type": "uint256"
        },
        {
          "components": [
            {
              "internalType": "uint32",
              "name": "validatorCount",
              "type": "uint32"
            },
            {
              "internalType": "uint64",
              "name": "networkFeeIndex",
              "type": "uint64"
            },
            {
              "internalType": "uint64",
              "name": "index",
              "type": "uint64"
            },
            {
              "internalType": "uint256",
              "name": "balance",
              "type": "uint256"
            },
            {
              "internalType": "bool",
              "name": "active",
              "type": "bool"
            }
          ],
          "internalType": "struct ISSVNetworkCore.Cluster",
          "name": "cluster",
          "type": "tuple"
        }
      ],
      "name": "registerValidator",
      "outputs": [],
      "stateMutability": "nonpayable",
      "type": "function"
    },
    {
      "inputs": [
        {
          "internalType": "uint64",
          "name": "operatorId",
          "type": "uint64"
        }
      ],
      "name": "removeOperator",
      "outputs": [],
      "stateMutability": "nonpayable",
      "type": "function"
    },
    {
      "inputs": [
        {
          "internalType": "bytes",
          "name": "publicKey",
          "type": "bytes"
        },
        {
          "internalType": "uint64[]",
          "name": "operatorIds",
          "type": "uint64[]"
        },
        {
          "components": [
            {
              "internalType": "uint32",
              "name": "validatorCount",
              "type": "uint32"
            },
            {
              "internalType": "uint64",
              "name": "networkFeeIndex",
              "type": "uint64"
            },
            {
              "internalType": "uint64",
              "name": "index",
              "type": "uint64"
            },
            {
              "internalType": "uint256",
              "name": "balance",
              "type": "uint256"
            },
            {
              "internalType": "bool",
              "name": "active",
              "type": "bool"
            }
          ],
          "internalType": "struct ISSVNetworkCore.Cluster",
          "name": "cluster",
          "type": "tuple"
        }
      ],
      "name": "removeValidator",
      "outputs": [],
      "stateMutability": "nonpayable",
      "type": "function"
    },
    {
      "inputs": [],
      "name": "renounceOwnership",
      "outputs": [],
      "stateMutability": "nonpayable",
      "type": "function"
    },
    {
      "inputs": [
        {
          "internalType": "address",
          "name": "recipientAddress",
          "type": "address"
        }
      ],
      "name": "setFeeRecipientAddress",
      "outputs": [],
      "stateMutability": "nonpayable",
      "type": "function"
    },
    {
      "inputs": [
        {
          "internalType": "uint64",
          "name": "operatorId",
          "type": "uint64"
        },
        {
          "internalType": "address",
          "name": "whitelisted",
          "type": "address"
        }
      ],
      "name": "setOperatorWhitelist",
      "outputs": [],
      "stateMutability": "nonpayable",
      "type": "function"
    },
    {
      "inputs": [
        {
          "internalType": "address",
          "name": "newOwner",
          "type": "address"
        }
      ],
      "name": "transferOwnership",
      "outputs": [],
      "stateMutability": "nonpayable",
      "type": "function"
    },
    {
      "inputs": [
        {
          "internalType": "uint64",
          "name": "newDeclareOperatorFeePeriod",
          "type": "uint64"
        }
      ],
      "name": "updateDeclareOperatorFeePeriod",
      "outputs": [],
      "stateMutability": "nonpayable",
      "type": "function"
    },
    {
      "inputs": [
        {
          "internalType": "uint64",
          "name": "newExecuteOperatorFeePeriod",
          "type": "uint64"
        }
      ],
      "name": "updateExecuteOperatorFeePeriod",
      "outputs": [],
      "stateMutability": "nonpayable",
      "type": "function"
    },
    {
      "inputs": [
        {
          "internalType": "uint64",
          "name": "blocks",
          "type": "uint64"
        }
      ],
      "name": "updateLiquidationThresholdPeriod",
      "outputs": [],
      "stateMutability": "nonpayable",
      "type": "function"
    },
    {
      "inputs": [
        {
          "internalType": "uint256",
          "name": "amount",
          "type": "uint256"
        }
      ],
      "name": "updateMinimumLiquidationCollateral",
      "outputs": [],
      "stateMutability": "nonpayable",
      "type": "function"
    },
    {
      "inputs": [
        {
          "internalType": "uint256",
          "name": "fee",
          "type": "uint256"
        }
      ],
      "name": "updateNetworkFee",
      "outputs": [],
      "stateMutability": "nonpayable",
      "type": "function"
    },
    {
      "inputs": [
        {
          "internalType": "uint64",
          "name": "newOperatorMaxFeeIncrease",
          "type": "uint64"
        }
      ],
      "name": "updateOperatorFeeIncreaseLimit",
      "outputs": [],
      "stateMutability": "nonpayable",
      "type": "function"
    },
    {
      "inputs": [
        {
          "internalType": "address",
          "name": "newImplementation",
          "type": "address"
        }
      ],
      "name": "upgradeTo",
      "outputs": [],
      "stateMutability": "nonpayable",
      "type": "function"
    },
    {
      "inputs": [
        {
          "internalType": "address",
          "name": "newImplementation",
          "type": "address"
        },
        {
          "internalType": "bytes",
          "name": "data",
          "type": "bytes"
        }
      ],
      "name": "upgradeToAndCall",
      "outputs": [],
      "stateMutability": "payable",
      "type": "function"
    },
    {
      "inputs": [
        {
          "internalType": "bytes32",
          "name": "",
          "type": "bytes32"
        }
      ],
      "name": "validatorPKs",
      "outputs": [
        {
          "internalType": "address",
          "name": "owner",
          "type": "address"
        },
        {
          "internalType": "bool",
          "name": "active",
          "type": "bool"
        }
      ],
      "stateMutability": "view",
      "type": "function"
    },
    {
      "inputs": [],
      "name": "validatorsPerOperatorLimit",
      "outputs": [
        {
          "internalType": "uint32",
          "name": "",
          "type": "uint32"
        }
      ],
      "stateMutability": "view",
      "type": "function"
    },
    {
      "inputs": [],
      "name": "version",
      "outputs": [
        {
          "internalType": "bytes32",
          "name": "",
          "type": "bytes32"
        }
      ],
      "stateMutability": "view",
      "type": "function"
    },
    {
      "inputs": [
        {
          "internalType": "uint64[]",
          "name": "operatorIds",
          "type": "uint64[]"
        },
        {
          "internalType": "uint256",
          "name": "amount",
          "type": "uint256"
        },
        {
          "components": [
            {
              "internalType": "uint32",
              "name": "validatorCount",
              "type": "uint32"
            },
            {
              "internalType": "uint64",
              "name": "networkFeeIndex",
              "type": "uint64"
            },
            {
              "internalType": "uint64",
              "name": "index",
              "type": "uint64"
            },
            {
              "internalType": "uint256",
              "name": "balance",
              "type": "uint256"
            },
            {
              "internalType": "bool",
              "name": "active",
              "type": "bool"
            }
          ],
          "internalType": "struct ISSVNetworkCore.Cluster",
          "name": "cluster",
          "type": "tuple"
        }
      ],
      "name": "withdraw",
      "outputs": [],
      "stateMutability": "nonpayable",
      "type": "function"
    },
    {
      "inputs": [
        {
          "internalType": "uint256",
          "name": "amount",
          "type": "uint256"
        }
      ],
      "name": "withdrawNetworkEarnings",
      "outputs": [],
      "stateMutability": "nonpayable",
      "type": "function"
    },
    {
      "inputs": [
        {
          "internalType": "uint64",
          "name": "operatorId",
          "type": "uint64"
        },
        {
          "internalType": "uint256",
          "name": "amount",
          "type": "uint256"
        }
      ],
      "name": "withdrawOperatorEarnings",
      "outputs": [],
      "stateMutability": "nonpayable",
      "type": "function"
    },
    {
      "inputs": [
        {
          "internalType": "uint64",
          "name": "operatorId",
          "type": "uint64"
        }
      ],
      "name": "withdrawOperatorEarnings",
      "outputs": [],
      "stateMutability": "nonpayable",
      "type": "function"
    }
  ],
  "bytecode": "0x60a06040523060805234801561001457600080fd5b506080516162a06200005b60003960008181610f8c015281816110270152818161112b015281816111c10152818161155d015281816130ce015261316401526162a06000f3fe6080604052600436106102fd5760003560e01c80638da5cb5b1161018f578063c90a7eab116100e1578063e6a778171161008a578063f2fde38b11610064578063f2fde38b14610a80578063fc2ecd8014610aa0578063ff212c5c14610ac057600080fd5b8063e6a7781714610a20578063eb60802214610a40578063eb7e6ec514610a6057600080fd5b8063dbcdc2cc116100bb578063dbcdc2cc146109c2578063e2baf194146109e2578063e30c397814610a0257600080fd5b8063c90a7eab1461095a578063d22317411461097a578063d70cae7e1461099a57600080fd5b8063ac4f287311610143578063b4c9c4081161011d578063b4c9c408146108fa578063c3dcc9f41461091a578063c8c876c61461093a57600080fd5b8063ac4f287314610889578063b2802f4f146108b1578063b317c35f146108da57600080fd5b806397f988dc1161017457806397f988dc146107425780639ccfd31514610828578063a8e899161461086857600080fd5b80638da5cb5b14610704578063967ef8071461072257600080fd5b80633ee7dd4e116102535780636512447d116101fc57806379ba5097116101d657806379ba5097146106af57806379e3e4e4146106c45780638932cee0146106e457600080fd5b80636512447d146106435780636739afca14610663578063715018a61461069a57600080fd5b80634f6d984a1161022d5780634f6d984a146105f757806352d1902d1461061757806354fd4d501461062c57600080fd5b80633ee7dd4e1461052f5780634162169f1461057d5780634f1ef286146105e457600080fd5b80632e168e0e116102b557806335f637671161028f57806335f63767146104cf5780633631983f146104ef5780633659cfe61461050f57600080fd5b80632e168e0e146104125780632e41e2e814610432578063350cfc551461046d57600080fd5b80631bc1d9d3116102e65780631bc1d9d31461035c5780631f1f9fd5146103d257806323d68a6d146103f257600080fd5b806308ee2e9b14610302578063190d82e41461033a575b600080fd5b34801561030e57600080fd5b50610102546103209063ffffffff1681565b60405163ffffffff90911681526020015b60405180910390f35b34801561034657600080fd5b5061035a6103553660046155bd565b610ae0565b005b34801561036857600080fd5b506103a86103773660046155e7565b60fe602052600090815260409020546001600160401b0380821691600160401b8104821691600160801b9091041683565b604080516001600160401b0394851681529284166020840152921691810191909152606001610331565b3480156103de57600080fd5b5061035a6103ed366004615602565b610b7b565b3480156103fe57600080fd5b5061035a61040d3660046155e7565b610d3a565b34801561041e57600080fd5b5061035a61042d3660046155e7565b610dd3565b34801561043e57600080fd5b5061045f61044d366004615602565b60ff6020526000908152604090205481565b604051908152602001610331565b34801561047957600080fd5b506104b0610488366004615602565b610100602052600090815260409020546001600160a01b03811690600160a01b900460ff1682565b604080516001600160a01b039093168352901515602083015201610331565b3480156104db57600080fd5b5061035a6104ea3660046155bd565b610e69565b3480156104fb57600080fd5b5061035a61050a3660046155e7565b610f00565b34801561051b57600080fd5b5061035a61052a366004615630565b610f82565b34801561053b57600080fd5b5061056561054a3660046155e7565b60fd602052600090815260409020546001600160a01b031681565b6040516001600160a01b039091168152602001610331565b34801561058957600080fd5b50610104546105b89063ffffffff8116906001600160401b036401000000008204811691600160601b90041683565b6040805163ffffffff90941684526001600160401b039283166020850152911690820152606001610331565b61035a6105f2366004615693565b611121565b34801561060357600080fd5b5061035a610612366004615865565b6112ab565b34801561062357600080fd5b5061045f611550565b34801561063857600080fd5b5061045f6101015481565b34801561064f57600080fd5b5061035a61065e3660046155e7565b611615565b34801561066f57600080fd5b50610106546103a8906001600160401b0380821691600160401b8104821691600160801b9091041683565b3480156106a657600080fd5b5061035a6116b3565b3480156106bb57600080fd5b5061035a6116c7565b3480156106d057600080fd5b5061035a6106df3660046155e7565b611752565b3480156106f057600080fd5b5061035a6106ff3660046155e7565b6117b8565b34801561071057600080fd5b506097546001600160a01b0316610565565b34801561072e57600080fd5b5061035a61073d366004615904565b61184e565b34801561074e57600080fd5b506107d361075d3660046155e7565b60fc60209081526000918252604091829020805483516060810185526001909201546001600160401b038082168452600160401b8204811694840194909452600160801b90048316938201939093526001600160a01b03831692600160a01b810490921691600160e01b900463ffffffff169084565b604080516001600160a01b0390951685526001600160401b0393841660208087019190915263ffffffff90931685820152815184166060860152918101518316608085015201511660a082015260c001610331565b34801561083457600080fd5b506101025461085090600160a01b90046001600160401b031681565b6040516001600160401b039091168152602001610331565b34801561087457600080fd5b5061010354610850906001600160401b031681565b34801561089557600080fd5b506101025461085090600160601b90046001600160401b031681565b3480156108bd57600080fd5b50610102546108509064010000000090046001600160401b031681565b3480156108e657600080fd5b5061035a6108f53660046155bd565b612160565b34801561090657600080fd5b5061035a610915366004615602565b6121f7565b34801561092657600080fd5b5061035a6109353660046159b3565b612279565b34801561094657600080fd5b5061035a6109553660046155e7565b6123ae565b34801561096657600080fd5b5061035a610975366004615a57565b612442565b34801561098657600080fd5b5061035a610995366004615602565b612467565b3480156109a657600080fd5b506101035461085090600160401b90046001600160401b031681565b3480156109ce57600080fd5b5061035a6109dd366004615630565b6125c0565b3480156109ee57600080fd5b5061035a6109fd366004615865565b612601565b348015610a0e57600080fd5b5060c9546001600160a01b0316610565565b348015610a2c57600080fd5b5061035a610a3b366004615a8e565b612ad4565b348015610a4c57600080fd5b5061035a610a5b3660046155e7565b612f73565b348015610a6c57600080fd5b5061035a610a7b366004615ae5565b612fd7565b348015610a8c57600080fd5b5061035a610a9b366004615630565b6132aa565b348015610aac57600080fd5b5061035a610abb366004615b85565b613328565b348015610acc57600080fd5b50610850610adb366004615bff565b613819565b6001600160401b03828116600090815260fc6020908152604091829020825160808101845281546001600160a01b0381168252600160a01b8104861682850152600160e01b900463ffffffff16818501528351606080820186526001909301548087168252600160401b8104871694820194909452600160801b9093049094169282019290925290820152610b77908390836139c3565b5050565b610b83613b51565b6040805160608082018352610106546001600160401b03808216808552600160401b83048216602080870191909152600160801b909304821685870152855193840186526101045463ffffffff80821686526401000000008204841694860194909452600160601b90049091169483019490945291929091610c07918391613bab16565b805161010480546020840151604085015163ffffffff9094166bffffffffffffffffffffffff19909216919091176401000000006001600160401b03928316021767ffffffffffffffff60601b1916600160601b9190931602919091179055610c6f82613bd3565b6001600160401b039081166020840152438116604084015282517f8f49a76c5d617bd72673d92d3a019ff8f04f204536aae7a3d10e7ca85603f3cc91610cb59116613c10565b60408051918252602082018690520160405180910390a1610cd583613c28565b6001600160401b03908116808452610106805460208601516040909601518416600160801b0267ffffffffffffffff60801b1996909416600160401b026fffffffffffffffffffffffffffffffff199091169092179190911793909316179091555050565b6001600160401b03818116600090815260fc6020908152604091829020825160808101845281546001600160a01b0381168252600160a01b8104861682850152600160e01b900463ffffffff16818501528351606080820186526001909301548087168252600160401b8104871694820194909452600160801b9093049094169282019290925290820152610dd0908290613c41565b50565b6001600160401b03818116600090815260fc6020908152604091829020825160808101845281546001600160a01b0381168252600160a01b8104861682850152600160e01b900463ffffffff16818501528351606080820186526001909301548087168252600160401b8104871694820194909452600160801b9093049094169282019290925290820152610dd0908290613cf9565b6001600160401b03828116600090815260fc6020908152604091829020825160808101845281546001600160a01b0381168252600160a01b8104861682850152600160e01b900463ffffffff16818501528351606080820186526001909301548087168252600160401b8104871694820194909452600160801b9093049094169282019290925290820152610b7790839083613e94565b610f08613b51565b61010280547fffffffff0000000000000000ffffffffffffffffffffffffffffffffffffffff16600160a01b6001600160401b038481168202929092179283905560405192041681527f2fff7e5a48a4befc2c2be4d77e141f6d97907798977ce452429ec55c2658a342906020015b60405180910390a150565b6001600160a01b037f00000000000000000000000000000000000000000000000000000000000000001630036110255760405162461bcd60e51b815260206004820152602c60248201527f46756e6374696f6e206d7573742062652063616c6c6564207468726f7567682060448201527f64656c656761746563616c6c000000000000000000000000000000000000000060648201526084015b60405180910390fd5b7f00000000000000000000000000000000000000000000000000000000000000006001600160a01b03166110807f360894a13ba1a3210667c828492db98dca3e2076cc3735a920a3ca505d382bbc546001600160a01b031690565b6001600160a01b0316146110fc5760405162461bcd60e51b815260206004820152602c60248201527f46756e6374696f6e206d7573742062652063616c6c6564207468726f7567682060448201527f6163746976652070726f78790000000000000000000000000000000000000000606482015260840161101c565b61110581614036565b60408051600080825260208201909252610dd09183919061403e565b6001600160a01b037f00000000000000000000000000000000000000000000000000000000000000001630036111bf5760405162461bcd60e51b815260206004820152602c60248201527f46756e6374696f6e206d7573742062652063616c6c6564207468726f7567682060448201527f64656c656761746563616c6c0000000000000000000000000000000000000000606482015260840161101c565b7f00000000000000000000000000000000000000000000000000000000000000006001600160a01b031661121a7f360894a13ba1a3210667c828492db98dca3e2076cc3735a920a3ca505d382bbc546001600160a01b031690565b6001600160a01b0316146112965760405162461bcd60e51b815260206004820152602c60248201527f46756e6374696f6e206d7573742062652063616c6c6564207468726f7567682060448201527f6163746976652070726f78790000000000000000000000000000000000000000606482015260840161101c565b61129f82614036565b610b778282600161403e565b60006112b9823386306141e3565b90506112c4826143f9565b83516000908190815b8181101561138f57600060fc60008a84815181106112ed576112ed615c4a565b6020908102919091018101516001600160401b0390811683529082019290925260400160002080546001820154919350600160a01b9004821691611332911643615c76565b61133c9190615c9d565b600182015461135b9190600160401b90046001600160401b0316615cc8565b6113659086615cc8565b815490955061138490600160a01b90046001600160401b031685615cc8565b9350506001016112cd565b505060408051606081018252610106546001600160401b038082168352600160401b820481166020840152600160801b90910416918101919091526113e19083906113d990613bd3565b869190614434565b848460600151101561140657604051631e9acf1760e31b815260040160405180910390fd5b84846060018181516114189190615ce8565b905250610106546101035461144991869184916001600160401b039081169180821691600160401b90910416614458565b1561146757604051631e9acf1760e31b815260040160405180910390fd5b8351602080860151604080880151606089015160808a015192516114d49695929391920160e09590951b6001600160e01b031916855260c093841b6001600160c01b031990811660048701529290931b909116600c8401526014830152151560f81b603482015260350190565b60408051601f198184030181529181528151602092830120600086815260ff90935291205561150333866144cf565b336001600160a01b03167f27434ba64e254f0675ae2adca8d3a485bb16ce3134f988859e747df217ee7f1387878760405161154093929190615d3f565b60405180910390a2505050505050565b6000306001600160a01b037f000000000000000000000000000000000000000000000000000000000000000016146115f05760405162461bcd60e51b815260206004820152603860248201527f555550535570677261646561626c653a206d757374206e6f742062652063616c60448201527f6c6564207468726f7567682064656c656761746563616c6c0000000000000000606482015260840161101c565b507f360894a13ba1a3210667c828492db98dca3e2076cc3735a920a3ca505d382bbc90565b61161d613b51565b620189c06001600160401b0382161015611663576040517f6e6c9cac00000000000000000000000000000000000000000000000000000000815260040160405180910390fd5b610103805467ffffffffffffffff19166001600160401b0383169081179091556040519081527f42af14411036d7a50e5e92daf825781450fc8fac8fb65cbdb04720ff08efb84f90602001610f77565b6116bb613b51565b6116c56000614596565b565b60c95433906001600160a01b031681146117495760405162461bcd60e51b815260206004820152602960248201527f4f776e61626c6532537465703a2063616c6c6572206973206e6f74207468652060448201527f6e6577206f776e65720000000000000000000000000000000000000000000000606482015260840161101c565b610dd081614596565b61175a613b51565b61010280546bffffffffffffffff0000000019166401000000006001600160401b038416908102919091179091556040519081527f5fbd75d987b37490f91aa1909db948e7ff14c6ffb495b2f8e0b2334da9b192f190602001610f77565b6001600160401b03818116600090815260fc6020908152604091829020825160808101845281546001600160a01b0381168252600160a01b8104861682850152600160e01b900463ffffffff16818501528351606080820186526001909301548087168252600160401b8104871694820194909452600160801b9093049094169282019290925290820152610dd09082906145bc565b8451611859816147e7565b6118638888614843565b60006001600160a01b031661010060008a8a604051611883929190615da9565b60408051918290039091208252602082019290925201600020546001600160a01b0316146118dd576040517f8d09a73e00000000000000000000000000000000000000000000000000000000815260040160405180910390fd5b60408051808201825233815260016020820152905161010090600090611906908c908c90615da9565b60408051918290039091208252602080830193909352908101600090812084518154958501511515600160a01b027fffffffffffffffffffffff0000000000000000000000000000000000000000009096166001600160a01b0390911617949094179093555161197a9133918a9101615db9565b60408051601f198184030181529181528151602092830120600081815260ff909352912054909150611a1c57825163ffffffff161515806119c7575060208301516001600160401b031615155b806119de575060408301516001600160401b031615155b806119ec5750606083015115155b806119f957508260800151155b15611a17576040516312e04c8760e01b815260040160405180910390fd5b611ad5565b8251602080850151604080870151606088015160808901519251611a899695929391920160e09590951b6001600160e01b031916855260c093841b6001600160c01b031990811660048701529290931b909116600c8401526014830152151560f81b603482015260350190565b60408051601f198184030181529181528151602092830120600084815260ff90935291205414611acc576040516312e04c8760e01b815260040160405180910390fd5b611ad5836143f9565b60408051606081018252610106546001600160401b038082168352600160401b820481166020840152600160801b9091041691810191909152600090819081611b1d82613bd3565b90508787606001818151611b319190615e10565b9052506080870151156120045760005b86811015611f2f5786611b55826001615e10565b1015611be3578b611b67826001615e10565b81518110611b7757611b77615c4a565b60200260200101516001600160401b03168c8281518110611b9a57611b9a615c4a565b60200260200101516001600160401b03161115611be3576040517fdd020e2500000000000000000000000000000000000000000000000000000000815260040160405180910390fd5b600060fc60008e8481518110611bfb57611bfb615c4a565b6020908102919091018101516001600160401b0390811683528282019390935260409182016000908120835160808101855281546001600160a01b0381168252600160a01b8104871682860152600160e01b900463ffffffff16818601528451606080820187526001909301548088168252600160401b8104881695820195909552600160801b9094048616948401949094528301829052905191935091169003611cd2576040517f961e3e8c00000000000000000000000000000000000000000000000000000000815260040160405180910390fd5b60006001600160a01b031660fd60008f8581518110611cf357611cf3615c4a565b6020908102919091018101516001600160401b03168252810191909152604001600020546001600160a01b031614801590611d795750336001600160a01b031660fd60008f8581518110611d4957611d49615c4a565b6020908102919091018101516001600160401b03168252810191909152604001600020546001600160a01b031614155b15611db0576040517f8c6e5d7100000000000000000000000000000000000000000000000000000000815260040160405180910390fd5b611db98161487d565b6101025460408201805163ffffffff90921691611dd590615e23565b63ffffffff16908190521115611e17576040517f6df5ab7600000000000000000000000000000000000000000000000000000000815260040160405180910390fd5b606081015160200151611e2a9087615cc8565b9550806020015185611e3c9190615cc8565b94508060fc60008f8581518110611e5557611e55615c4a565b6020908102919091018101516001600160401b03908116835282820193909352604091820160002084518154868401518786015163ffffffff16600160e01b026001600160e01b03918816600160a01b026001600160e01b03199093166001600160a01b039094169390931791909117161781556060909401518051600195860180549383015192909401518516600160801b0267ffffffffffffffff60801b19928616600160401b026fffffffffffffffffffffffffffffffff1990941691909516179190911716919091179055919091019050611b41565b50611f3b878583614434565b604080516060810182526101045463ffffffff80821683526001600160401b03640100000000830481166020850152600160601b9092049091169282019290925283519091611f8c918391613bab16565b80518190611f9990615e23565b63ffffffff908116909152815161010480546020850151604090950151929093166bffffffffffffffffffffffff19909316929092176401000000006001600160401b03948516021767ffffffffffffffff60601b1916600160601b93909116929092029190911790555b8651879061201190615e23565b63ffffffff908116909152825161010354612047928a92879290916001600160401b0380831692600160401b9004169061445816565b1561206557604051631e9acf1760e31b815260040160405180910390fd5b86516020808901516040808b015160608c015160808d015192516120d29695929391920160e09590951b6001600160e01b031916855260c093841b6001600160c01b031990811660048701529290931b909116600c8401526014830152151560f81b603482015260350190565b60408051601f198184030181529181528151602092830120600088815260ff9093529120558715612106576121068861490d565b336001600160a01b03167fd432d53fd23906d0269fb9864b3832f32b83148df4315eab6ca914225c7fa2f48c8f8f8e8e8d60405161214996959493929190615e71565b60405180910390a250505050505050505050505050565b6001600160401b03828116600090815260fc6020908152604091829020825160808101845281546001600160a01b0381168252600160a01b8104861682850152600160e01b900463ffffffff16818501528351606080820186526001909301548087168252600160401b8104871694820194909452600160801b9093049094169282019290925290820152610b77908390836149d8565b6121ff613b51565b61220881613c28565b61010380546001600160401b0392909216600160401b027fffffffffffffffffffffffffffffffff0000000000000000ffffffffffffffff9092169190911790556040518181527fd363ab4392efaf967a89d8616cba1ff0c6f05a04c2f214671be365f0fab0596090602001610f77565b60006122bd868686808060200260200160405190810160405280939291908181526020018383602002808284376000920191909152508794939250309150506141e3565b905082826060018181516122d19190615e10565b90525081516020808401516040808601516060870151608088015192516123419695929391920160e09590951b6001600160e01b031916855260c093841b6001600160c01b031990811660048701529290931b909116600c8401526014830152151560f81b603482015260350190565b60408051601f198184030181529181528151602092830120600084815260ff90935291205561236f8361490d565b856001600160a01b03167f8ad175cb337f2878bf0c228738f102d387d7be2d47dc1953da383d9fbf1ed55b868686866040516115409493929190615f01565b6001600160401b03818116600090815260fc60209081526040808320815160808101835281546001600160a01b0381168252600160a01b8104871682860152600160e01b900463ffffffff16818401528251606080820185526001909301548088168252600160401b8104881695820195909552600160801b90940490951691830191909152830152610dd0918391613e94565b6001600160401b038216600090815260fc60205260409020610b779083908390614cb7565b61246f613b51565b604080516060810182526101045463ffffffff811682526001600160401b03640100000000820481166020840152600160601b909104169181019190915260006124b883613c28565b610106549091506000906124d69084906001600160401b0316614dbb565b9050806001600160401b0316826001600160401b0316111561250b57604051631e9acf1760e31b815260040160405180910390fd5b6125158282615c76565b6001600160401b039081166020850181905284516101048054604088015163ffffffff9093166bffffffffffffffffffffffff19909116176401000000009093029290921767ffffffffffffffff60601b1916600160601b919093160291909117905561258233856144cf565b604080518581523360208201527f370342c3bb9245e20bffe6dced02ba2fceca979701f881d5adc72d838e83f1c5910160405180910390a150505050565b6040516001600160a01b038216815233907f259235c230d57def1521657e7c7951d3b385e76193378bc87ef6b56bc2ec35489060200160405180910390a250565b600061260f823386306141e3565b905081608001511561264d576040517f3babafd200000000000000000000000000000000000000000000000000000000815260040160405180910390fd5b83516000908190815b8181101561285157600060fc60008a848151811061267657612676615c4a565b6020908102919091018101516001600160401b039081168352828201939093526040918201600020825160808101845281546001600160a01b0381168252600160a01b8104861682850152600160e01b900463ffffffff16818501528351606080820186526001909301548087168252600160401b8104871694820194909452600160801b90930485169383019390935282018190525190925016156128335761271f8161487d565b8651604082018051612732908390615f9e565b63ffffffff16905250602081015161274a9085615cc8565b93508060fc60008b858151811061276357612763615c4a565b6020908102919091018101516001600160401b03908116835282820193909352604091820160002084518154868401518786015163ffffffff16600160e01b026001600160e01b03918816600160a01b026001600160e01b03199093166001600160a01b039094169390931791909117161781556060909401518051600190950180549282015191909301518416600160801b0267ffffffffffffffff60801b19918516600160401b026fffffffffffffffffffffffffffffffff19909316959094169490941717929092161790555b6060810151602001516128469086615cc8565b945050600101612656565b505060408051606081018252610106546001600160401b038082168352600160401b820481166020840152600160801b909104169181019190915260009061289890613bd3565b905085856060018181516128ac9190615e10565b905250600160808601526001600160401b038084166040870152811660208601526128d8858483614434565b61010654604080516060810182526101045463ffffffff80821683526001600160401b03640100000000830481166020850152600160601b909204821693830193909352909216919061292f9082908490613bab16565b865181518290612940908390615f9e565b63ffffffff9081169091528251610104805460208601516040909601519284166bffffffffffffffffffffffff19909116176401000000006001600160401b03968716021767ffffffffffffffff60601b1916600160601b92861692909202919091179055610103546129c8938a93508792869280831692600160401b909104169061445816565b156129e657604051631e9acf1760e31b815260040160405180910390fd5b85516020808801516040808a015160608b015160808c01519251612a539695929391920160e09590951b6001600160e01b031916855260c093841b6001600160c01b031990811660048701529290931b909116600c8401526014830152151560f81b603482015260350190565b60408051601f198184030181529181528151602092830120600088815260ff9093529120558615612a8757612a878761490d565b336001600160a01b03167f4728af0c29bfcecc7b936d4b253139a1abb52e9d00b65bc7661a58356301bd528988604051612ac2929190615fbb565b60405180910390a25050505050505050565b6000612ae2828585306141e3565b9050612aed826143f9565b82516000908190815b81811015612cf157600060fc6000898481518110612b1657612b16615c4a565b6020908102919091018101516001600160401b039081168352828201939093526040918201600020825160808101845281546001600160a01b0381168252600160a01b8104861682850152600160e01b900463ffffffff16818501528351606080820186526001909301548087168252600160401b8104871694820194909452600160801b9093048516938301939093528201819052519092501615612cd357612bbf8161487d565b8651604082018051612bd290839061601f565b63ffffffff169052506020810151612bea9085615cc8565b93508060fc60008a8581518110612c0357612c03615c4a565b6020908102919091018101516001600160401b03908116835282820193909352604091820160002084518154868401518786015163ffffffff16600160e01b026001600160e01b03918816600160a01b026001600160e01b03199093166001600160a01b039094169390931791909117161781556060909401518051600190950180549282015191909301518416600160801b0267ffffffffffffffff60801b19918516600160401b026fffffffffffffffffffffffffffffffff19909316959094169490941717929092161790555b606081015160200151612ce69086615cc8565b945050600101612af6565b505060408051606081018252610106546001600160401b038082168352600160401b820481166020840152600160801b9091041691810191909152612d43908390612d3b90613bd3565b869190614e03565b610106546001600160401b031660006001600160a01b0388163314801590612d8f575061010354612d8d908790859085906001600160401b0380821691600160401b900416614458565b155b15612dc6576040517f60300a8d00000000000000000000000000000000000000000000000000000000815260040160405180910390fd5b604080516060810182526101045463ffffffff80821683526001600160401b03640100000000830481166020850152600160601b9092049091169282019290925290612e169082908590613bab16565b865181518290612e2790839061601f565b63ffffffff9081169091528251610104805460208601516040870151939094166bffffffffffffffffffffffff19909116176401000000006001600160401b03948516021767ffffffffffffffff60601b1916600160601b939092169290920217905550606087015115612ea357606087018051600090915291505b600060408881018290526020808a0183905260808a01839052895160608b0151835160e09290921b6001600160e01b0319168284015260248201859052602c8201859052603482015260548101849052825180820360350181526055909101835280519082012089845260ff9091529120558115612f2557612f2533836144cf565b886001600160a01b03167fa1934b9fd1b01348c2c4add7fdf17276e2169476b9a3448a3b2005492a6284b68989604051612f60929190615fbb565b60405180910390a2505050505050505050565b612f7b613b51565b610102805467ffffffffffffffff60601b1916600160601b6001600160401b038416908102919091179091556040519081527ff6b8a2b45d0a60381de51a7b980c4660d9e5b82db6e07a4d342bfc17a6ff96bf90602001610f77565b600054610100900460ff1615808015612ff75750600054600160ff909116105b806130115750303b158015613011575060005460ff166001145b6130835760405162461bcd60e51b815260206004820152602e60248201527f496e697469616c697a61626c653a20636f6e747261637420697320616c72656160448201527f647920696e697469616c697a6564000000000000000000000000000000000000606482015260840161101c565b600080547fffffffffffffffffffffffffffffffffffffffffffffffffffffffffffffff0016600117905580156130c4576000805461ff0019166101001790555b6001600160a01b037f00000000000000000000000000000000000000000000000000000000000000001630036131625760405162461bcd60e51b815260206004820152602c60248201527f46756e6374696f6e206d7573742062652063616c6c6564207468726f7567682060448201527f64656c656761746563616c6c0000000000000000000000000000000000000000606482015260840161101c565b7f00000000000000000000000000000000000000000000000000000000000000006001600160a01b03166131bd7f360894a13ba1a3210667c828492db98dca3e2076cc3735a920a3ca505d382bbc546001600160a01b031690565b6001600160a01b0316146132395760405162461bcd60e51b815260206004820152602c60248201527f46756e6374696f6e206d7573742062652063616c6c6564207468726f7567682060448201527f6163746976652070726f78790000000000000000000000000000000000000000606482015260840161101c565b613241614eb2565b613249614f2f565b6132598989898989898989614fb5565b801561329f576000805461ff0019169055604051600181527f7f26b83ff96e1f2b6a682f133852f6798a09c465da95921460cefb38474024989060200160405180910390a15b505050505050505050565b6132b2613b51565b60c980546001600160a01b03831673ffffffffffffffffffffffffffffffffffffffff1990911681179091556132f06097546001600160a01b031690565b6001600160a01b03167f38d16b8cac22d99fc7c124b9cd0de2d3fa1faef420bfe791d8c362d765e2270060405160405180910390a350565b6000848460405161333a929190615da9565b6040805191829003909120600081815261010060205291909120549091506001600160a01b031680613398576040517fe51315d200000000000000000000000000000000000000000000000000000000815260040160405180910390fd5b6001600160a01b03811633146133da576040517f30446a8c00000000000000000000000000000000000000000000000000000000815260040160405180910390fd5b60006133e8843387306141e3565b85519091506133f6816147e7565b6134008888614843565b60008560800151156137165760005b828110156135f957600060fc60008a848151811061342f5761342f615c4a565b6020908102919091018101516001600160401b039081168352828201939093526040918201600020825160808101845281546001600160a01b0381168252600160a01b8104861682850152600160e01b900463ffffffff16818501528351606080820186526001909301548087168252600160401b8104871694820194909452600160801b90930485169383019390935282018190525190925016156135db576134d88161487d565b8060400180516134e79061603c565b63ffffffff1690528851819060fc906000908c908690811061350b5761350b615c4a565b6020908102919091018101516001600160401b03908116835282820193909352604091820160002084518154868401518786015163ffffffff16600160e01b026001600160e01b03918816600160a01b026001600160e01b03199093166001600160a01b039094169390931791909117161781556060909401518051600190950180549282015191909301518416600160801b0267ffffffffffffffff60801b19918516600160401b026fffffffffffffffffffffffffffffffff19909316959094169490941717929092161790555b6060810151602001516135ee9084615cc8565b92505060010161340f565b5060408051606081018252610106546001600160401b038082168352600160401b820481166020840152600160801b909104169181019190915261364a90829061364290613bd3565b889190614434565b604080516060810182526101045463ffffffff80821683526001600160401b03640100000000830481166020850152600160601b90920482169383019390935261010654919261369e9284921690613bab16565b805181906136ab9061603c565b63ffffffff908116909152815161010480546020850151604090950151929093166bffffffffffffffffffffffff19909316929092176401000000006001600160401b03948516021767ffffffffffffffff60601b1916600160601b93909116929092029190911790555b855186906137239061603c565b63ffffffff16905260008581526101006020908152604080832080547fffffffffffffffffffffff0000000000000000000000000000000000000000001690558851898301518a83015160608c015160808d0151855160e09590951b6001600160e01b0319168588015260c093841b6001600160c01b031990811660248701529290931b909116602c8401526034830152151560f81b605482015281518082036035018152605590910180835281519184019190912087855260ff90935292205533907ff80b0a8cdbf1aa38914ab10cc803eba9406d6f8ed18780f2fe7b2e8b8e55f2b390612f60908a908d908d908c9061605c565b6000811580159061382d57506305f5e10082105b15613864576040517f732f941300000000000000000000000000000000000000000000000000000000815260040160405180910390fd5b61387260fb80546001019055565b5060fb5460408051608081019091523381526020810161389184613c28565b6001600160401b03908116825260006020808401829052604080516060808201835243861682528184018590528183018590529582015286841680845260fc83529281902086518154888501518985015163ffffffff16600160e01b026001600160e01b03918916600160a01b026001600160e01b03199093166001600160a01b03909416939093179190911716178155959094015180516001909601805492820151918601518516600160801b0267ffffffffffffffff60801b19928616600160401b026fffffffffffffffffffffffffffffffff199094169790951696909617919091171691909117909255513391907fd839f31c14bd632f424e307b36abff63ca33684f77f28e35dc13718ef338f7f4906139b4908890889088906160d4565b60405180910390a39392505050565b816139cd81615198565b60006139d883613c28565b905083602001516001600160401b0316816001600160401b031610613a29576040517f410a2b6c00000000000000000000000000000000000000000000000000000000815260040160405180910390fd5b613a328461487d565b6001600160401b038082166020808701918252878316600081815260fc8352604090819020895181549551838c015163ffffffff16600160e01b026001600160e01b03918916600160a01b026001600160e01b03199098166001600160a01b03909316929092179690961795909516949094178455606089015180516001909501805494820151918301518716600160801b0267ffffffffffffffff60801b19928816600160401b026fffffffffffffffffffffffffffffffff1990961696909716959095179390931792909216939093179091555133907f513e931ff778ed01e676d55880d8db185c29b0094546ff2b3e9f5b6920d16bef90613b429043908890918252602082015260400190565b60405180910390a35050505050565b6097546001600160a01b031633146116c55760405162461bcd60e51b815260206004820181905260248201527f4f776e61626c653a2063616c6c6572206973206e6f7420746865206f776e6572604482015260640161101c565b613bb58282614dbb565b6001600160401b039081166020840152431660409092019190915250565b8051604082015160009190613bf1906001600160401b031643615ce8565b613bfb9190615c9d565b8260200151613c0a9190615cc8565b92915050565b6000613c0a629896806001600160401b0384166160f8565b600062989680613c3783615223565b613c0a9190616125565b80613c4b81615198565b6001600160401b03808416600090815260fe6020526040812054600160401b90049091169003613ca7576040517f26607f7100000000000000000000000000000000000000000000000000000000815260040160405180910390fd5b6001600160401b038316600081815260fe602052604080822080546001600160c01b03191690555133917f269e5b30b1f6e64e296fff57d56c77a4eb77fda7421146f1497f567539ba890691a3505050565b80613d0381615198565b613d0c8261487d565b6060820180516040808201516000928390528351820183905281860183815260208088018581526001600160401b038a8116875260fc83528587208a5181549351955163ffffffff16600160e01b026001600160e01b03968416600160a01b026001600160e01b03199095166001600160a01b03928316179490941795909516929092178255965180516001909201805482850151928801518a16600160801b0267ffffffffffffffff60801b19938b16600160401b026fffffffffffffffffffffffffffffffff1990921694909a169390931792909217169690961790955560fd90945291205490911615613e30576001600160401b038416600090815260fd60205260409020805473ffffffffffffffffffffffffffffffffffffffff191690555b6001600160401b03811615613e5a57613e5a84613e55836001600160401b0316613c10565b615283565b6040516001600160401b038516907f0e0ba6c2b04de36d6d509ec5bd155c43a9fe862f8052096dd54f3902a74cca3e90600090a250505050565b81613e9e81615198565b613ea78361487d565b600082158015613ec8575060008460600151604001516001600160401b0316115b15613edc5750606083015160400151613f3c565b600083118015613f0e5750613ef083613c28565b6001600160401b03168460600151604001516001600160401b031610155b15613f2357613f1c83613c28565b9050613f3c565b604051631e9acf1760e31b815260040160405180910390fd5b808460600151604001818151613f529190615c76565b6001600160401b03908116909152868116600090815260fc602090815260409182902088518154838b0151858c015163ffffffff16600160e01b026001600160e01b03918816600160a01b026001600160e01b03199093166001600160a01b0390941693909317919091171617815560608901518051600190920180549382015191909401518516600160801b0267ffffffffffffffff60801b19918616600160401b026fffffffffffffffffffffffffffffffff1990941692861692909217929092179190911617905561402f91508690613e55908416613c10565b5050505050565b610dd0613b51565b7f4910fdfa16fed3260ed0e7147f7cc6da11a60208b5b9406d12a635614ffd91435460ff161561407657614071836152d1565b505050565b826001600160a01b03166352d1902d6040518163ffffffff1660e01b8152600401602060405180830381865afa9250505080156140d0575060408051601f3d908101601f191682019092526140cd91810190616139565b60015b6141425760405162461bcd60e51b815260206004820152602e60248201527f45524331393637557067726164653a206e657720696d706c656d656e7461746960448201527f6f6e206973206e6f742055555053000000000000000000000000000000000000606482015260840161101c565b7f360894a13ba1a3210667c828492db98dca3e2076cc3735a920a3ca505d382bbc81146141d75760405162461bcd60e51b815260206004820152602960248201527f45524331393637557067726164653a20756e737570706f727465642070726f7860448201527f6961626c65555549440000000000000000000000000000000000000000000000606482015260840161101c565b5061407183838361539c565b60008084846040516020016141f9929190615db9565b60408051808303601f19018152828252805160209182012089518a830151938b015160608c015160808d015160e09390931b6001600160e01b0319169487019490945260c094851b6001600160c01b03199081166024880152941b909316602c850152603484019190915290151560f81b6054830152915060009060550160408051808303601f190181529082905280516020909101207f2e41e2e80000000000000000000000000000000000000000000000000000000082526004820184905291506000906001600160a01b03861690632e41e2e890602401602060405180830381865afa1580156142f0573d6000803e3d6000fd5b505050506040513d601f19601f820116820180604052508101906143149190616139565b0361434b576040517f185e2b1600000000000000000000000000000000000000000000000000000000815260040160405180910390fd5b6040517f2e41e2e80000000000000000000000000000000000000000000000000000000081526004810183905281906001600160a01b03861690632e41e2e890602401602060405180830381865afa1580156143ab573d6000803e3d6000fd5b505050506040513d601f19601f820116820180604052508101906143cf9190616139565b146143ed576040516312e04c8760e01b815260040160405180910390fd5b5090505b949350505050565b8060800151610dd0576040517f95a0cf3300000000000000000000000000000000000000000000000000000000815260040160405180910390fd5b61443f838383614e03565b6001600160401b03918216604084015216602090910152565b600061446c826001600160401b0316613c10565b8660600151101561447f575060016144c6565b855160009063ffffffff166144948688615cc8565b61449e9086615c9d565b6144a89190615c9d565b90506144bc816001600160401b0316613c10565b8760600151109150505b95945050505050565b610105546040517fa9059cbb0000000000000000000000000000000000000000000000000000000081526001600160a01b038481166004830152602482018490529091169063a9059cbb906044016020604051808303816000875af115801561453c573d6000803e3d6000fd5b505050506040513d601f19601f820116820180604052508101906145609190616152565b610b77576040517f045c4b0200000000000000000000000000000000000000000000000000000000815260040160405180910390fd5b60c9805473ffffffffffffffffffffffffffffffffffffffff19169055610dd0816153c7565b806145c681615198565b6001600160401b03808416600090815260fe60209081526040808320815160608101835290548086168252600160401b81048616938201849052600160801b9004909416908401529003614646576040517f26607f7100000000000000000000000000000000000000000000000000000000815260040160405180910390fd5b80602001516001600160401b031642108061466d575080604001516001600160401b031642115b156146a4576040517f97e4b51800000000000000000000000000000000000000000000000000000000815260040160405180910390fd5b6146ad8361487d565b80516001600160401b039081166020808601918252868316600081815260fc83526040808220895181549651838c015163ffffffff16600160e01b026001600160e01b03918a16600160a01b026001600160e01b03199099166001600160a01b03909316929092179790971796909616959095178555606089015180516001909601805482870151928401518916600160801b0267ffffffffffffffff60801b19938a16600160401b026fffffffffffffffffffffffffffffffff19909216988a169890981717919091169590951790945560fe90925291902080546001600160c01b03191690558251909133917f513e931ff778ed01e676d55880d8db185c29b0094546ff2b3e9f5b6920d16bef9143916147c99116613c10565b6040805192835260208301919091520160405180910390a350505050565b60048110806147f65750600d81115b8061480c575061480760038261616f565b600114155b15610dd0576040517f3818622400000000000000000000000000000000000000000000000000000000815260040160405180910390fd5b60308114610b77576040517f637297a400000000000000000000000000000000000000000000000000000000815260040160405180910390fd5b6020810151606082015151600091906148969043615c76565b6148a09190615c9d565b90508082606001516020018181516148b89190615cc8565b6001600160401b031690525060408201516148d99063ffffffff1682615c9d565b82606001516040018181516148ee9190615cc8565b6001600160401b03908116909152606090930151439093169092525050565b610105546040517f23b872dd000000000000000000000000000000000000000000000000000000008152336004820152306024820152604481018390526001600160a01b03909116906323b872dd906064016020604051808303816000875af115801561497e573d6000803e3d6000fd5b505050506040513d601f19601f820116820180604052508101906149a29190616152565b610dd0576040517f045c4b0200000000000000000000000000000000000000000000000000000000815260040160405180910390fd5b816149e281615198565b81158015906149f457506305f5e10082105b15614a2b576040517f732f941300000000000000000000000000000000000000000000000000000000815260040160405180910390fd5b6001600160401b03808516600090815260fc6020526040812054600160a01b900490911690614a5984613c28565b9050806001600160401b0316826001600160401b031603614aa6576040517fc81272f800000000000000000000000000000000000000000000000000000000815260040160405180910390fd5b6001600160401b03811615801590614ac557506001600160401b038216155b15614afc576040517f410a2b6c00000000000000000000000000000000000000000000000000000000815260040160405180910390fd5b6101025460009061271090614b2190600160a01b90046001600160401b031682615cc8565b614b2b9085615c9d565b614b359190616183565b9050806001600160401b0316826001600160401b03161115614b83576040517f958065d900000000000000000000000000000000000000000000000000000000815260040160405180910390fd5b60408051606081019091526001600160401b038084168252610102546020830191614bb79164010000000090041642615cc8565b6001600160401b03908116825261010254602090920191600160601b8104821691614beb9164010000000090041642615cc8565b614bf59190615cc8565b6001600160401b03908116909152888116600081815260fe60209081526040918290208551815492870151968401518616600160801b0267ffffffffffffffff60801b19978716600160401b026fffffffffffffffffffffffffffffffff1990941691909616179190911794909416929092179092555133907f796204296f2eb56d7432fa85961e9750d0cb21741873ebf7077e28263e32735890614ca69043908a90918252602082015260400190565b60405180910390a350505050505050565b6040805160808101825282546001600160a01b0381168252600160a01b81046001600160401b03908116602080850191909152600160e01b90920463ffffffff168385015283516060808201865260018701548084168352600160401b8104841694830194909452600160801b90930490911693810193909352810191909152614d4081615198565b6001600160401b038416600081815260fd6020908152604091829020805473ffffffffffffffffffffffffffffffffffffffff19166001600160a01b03881690811790915591519182527f29f72634ccb172103f8c542da23de7f6cf9bce724c5bb91bd6f3a516b14c63fe910160405180910390a250505050565b6000826000015163ffffffff1682846040015143614dd99190615c76565b614de39190615c9d565b614ded9190615c9d565b8360200151614dfc9190615cc8565b9392505050565b8251602084015160009163ffffffff1690614e1e9084615c76565b614e289190615c9d565b9050600081856000015163ffffffff16866040015186614e489190615c76565b614e529190615c9d565b614e5c9190615cc8565b90508460600151614e75826001600160401b0316613c10565b11614ea057614e8c816001600160401b0316613c10565b8560600151614e9b9190615ce8565b614ea3565b60005b60609095019490945250505050565b600054610100900460ff166116c55760405162461bcd60e51b815260206004820152602b60248201527f496e697469616c697a61626c653a20636f6e7472616374206973206e6f74206960448201527f6e697469616c697a696e67000000000000000000000000000000000000000000606482015260840161101c565b600054610100900460ff16614fac5760405162461bcd60e51b815260206004820152602b60248201527f496e697469616c697a61626c653a20636f6e7472616374206973206e6f74206960448201527f6e697469616c697a696e67000000000000000000000000000000000000000000606482015260840161101c565b6116c533614596565b600054610100900460ff166150325760405162461bcd60e51b815260206004820152602b60248201527f496e697469616c697a61626c653a20636f6e7472616374206973206e6f74206960448201527f6e697469616c697a696e67000000000000000000000000000000000000000000606482015260840161101c565b8787604051602001615045929190615da9565b60405160208183030381529060405261505d906161a9565b61010155610105805473ffffffffffffffffffffffffffffffffffffffff19166001600160a01b03881617905561010280547fffffffff0000000000000000ffffffffffffffff0000000000000000ffffffff16600160a01b6001600160401b03888116919091026bffffffffffffffff00000000191691909117640100000000878316021767ffffffffffffffff60601b1916600160601b8683160217909155610103805467ffffffffffffffff191691841691909117905561512081613c28565b61010380546001600160401b0392909216600160401b027fffffffffffffffffffffffffffffffff0000000000000000ffffffffffffffff909216919091179055505061010280547fffffffffffffffffffffffffffffffffffffffffffffffffffffffff00000000166107d0179055505050505050565b6060810151516001600160401b03166000036151e0576040517f961e3e8c00000000000000000000000000000000000000000000000000000000815260040160405180910390fd5b80516001600160a01b03163314610dd0576040517f5cd8319200000000000000000000000000000000000000000000000000000000815260040160405180910390fd5b6000615232629896808361616f565b1561527f5760405162461bcd60e51b815260206004820152601660248201527f4d617820707265636973696f6e20657863656564656400000000000000000000604482015260640161101c565b5090565b61528d33826144cf565b6040518181526001600160401b0383169033907f178bf78bdd8914b8483d640b4a4f84e20943b5eb6b639b7474286364c7651d609060200160405180910390a35050565b6001600160a01b0381163b61534e5760405162461bcd60e51b815260206004820152602d60248201527f455243313936373a206e657720696d706c656d656e746174696f6e206973206e60448201527f6f74206120636f6e747261637400000000000000000000000000000000000000606482015260840161101c565b7f360894a13ba1a3210667c828492db98dca3e2076cc3735a920a3ca505d382bbc805473ffffffffffffffffffffffffffffffffffffffff19166001600160a01b0392909216919091179055565b6153a583615426565b6000825111806153b25750805b15614071576153c18383615466565b50505050565b609780546001600160a01b0383811673ffffffffffffffffffffffffffffffffffffffff19831681179093556040519116919082907f8be0079c531659141344cd1fd0a4f28419497f9722a3daafe3b4186f6b6457e090600090a35050565b61542f816152d1565b6040516001600160a01b038216907fbc7cd75a20ee27fd9adebab32041f755214dbc6bffa90cc0225b39da2e5c2d3b90600090a250565b60606001600160a01b0383163b6154e55760405162461bcd60e51b815260206004820152602660248201527f416464726573733a2064656c65676174652063616c6c20746f206e6f6e2d636f60448201527f6e74726163740000000000000000000000000000000000000000000000000000606482015260840161101c565b600080846001600160a01b03168460405161550091906161f4565b600060405180830381855af49150503d806000811461553b576040519150601f19603f3d011682016040523d82523d6000602084013e615540565b606091505b50915091506144c682826040518060600160405280602781526020016162446027913960608315615572575081614dfc565b614dfc83838151156155875781518083602001fd5b8060405162461bcd60e51b815260040161101c9190616210565b80356001600160401b03811681146155b857600080fd5b919050565b600080604083850312156155d057600080fd5b6155d9836155a1565b946020939093013593505050565b6000602082840312156155f957600080fd5b614dfc826155a1565b60006020828403121561561457600080fd5b5035919050565b6001600160a01b0381168114610dd057600080fd5b60006020828403121561564257600080fd5b8135614dfc8161561b565b634e487b7160e01b600052604160045260246000fd5b604051601f8201601f191681016001600160401b038111828210171561568b5761568b61564d565b604052919050565b600080604083850312156156a657600080fd5b82356156b18161561b565b91506020838101356001600160401b03808211156156ce57600080fd5b818601915086601f8301126156e257600080fd5b8135818111156156f4576156f461564d565b61570684601f19601f84011601615663565b9150808252878482850101111561571c57600080fd5b80848401858401376000848284010152508093505050509250929050565b600082601f83011261574b57600080fd5b813560206001600160401b038211156157665761576661564d565b8160051b615775828201615663565b928352848101820192828101908785111561578f57600080fd5b83870192505b848310156157b5576157a6836155a1565b82529183019190830190615795565b979650505050505050565b8015158114610dd057600080fd5b600060a082840312156157e057600080fd5b60405160a081018181106001600160401b03821117156158025761580261564d565b604052905080823563ffffffff8116811461581c57600080fd5b815261582a602084016155a1565b602082015261583b604084016155a1565b6040820152606083013560608201526080830135615858816157c0565b6080919091015292915050565b600080600060e0848603121561587a57600080fd5b83356001600160401b0381111561589057600080fd5b61589c8682870161573a565b935050602084013591506158b385604086016157ce565b90509250925092565b60008083601f8401126158ce57600080fd5b5081356001600160401b038111156158e557600080fd5b6020830191508360208285010111156158fd57600080fd5b9250929050565b6000806000806000806000610120888a03121561592057600080fd5b87356001600160401b038082111561593757600080fd5b6159438b838c016158bc565b909950975060208a013591508082111561595c57600080fd5b6159688b838c0161573a565b965060408a013591508082111561597e57600080fd5b5061598b8a828b016158bc565b909550935050606088013591506159a58960808a016157ce565b905092959891949750929550565b600080600080600061010086880312156159cc57600080fd5b85356159d78161561b565b945060208601356001600160401b03808211156159f357600080fd5b818801915088601f830112615a0757600080fd5b813581811115615a1657600080fd5b8960208260051b8501011115615a2b57600080fd5b60208301965080955050505060408601359150615a4b87606088016157ce565b90509295509295909350565b60008060408385031215615a6a57600080fd5b615a73836155a1565b91506020830135615a838161561b565b809150509250929050565b600080600060e08486031215615aa357600080fd5b8335615aae8161561b565b925060208401356001600160401b03811115615ac957600080fd5b615ad58682870161573a565b9250506158b385604086016157ce565b60008060008060008060008060e0898b031215615b0157600080fd5b88356001600160401b03811115615b1757600080fd5b615b238b828c016158bc565b9099509750506020890135615b378161561b565b9550615b4560408a016155a1565b9450615b5360608a016155a1565b9350615b6160808a016155a1565b9250615b6f60a08a016155a1565b915060c089013590509295985092959890939650565b60008060008060e08587031215615b9b57600080fd5b84356001600160401b0380821115615bb257600080fd5b615bbe888389016158bc565b90965094506020870135915080821115615bd757600080fd5b50615be48782880161573a565b925050615bf486604087016157ce565b905092959194509250565b600080600060408486031215615c1457600080fd5b83356001600160401b03811115615c2a57600080fd5b615c36868287016158bc565b909790965060209590950135949350505050565b634e487b7160e01b600052603260045260246000fd5b634e487b7160e01b600052601160045260246000fd5b6001600160401b03828116828216039080821115615c9657615c96615c60565b5092915050565b6001600160401b03818116838216028082169190828114615cc057615cc0615c60565b505092915050565b6001600160401b03818116838216019080821115615c9657615c96615c60565b81810381811115613c0a57613c0a615c60565b600081518084526020808501945080840160005b83811015615d345781516001600160401b031687529582019590820190600101615d0f565b509495945050505050565b60e081526000615d5260e0830186615cfb565b90508360208301526143f1604083018463ffffffff815116825260208101516001600160401b0380821660208501528060408401511660408501525050606081015160608301526080810151151560808301525050565b8183823760009101908152919050565b6bffffffffffffffffffffffff198360601b1681526000601482018351602080860160005b83811015615e035781516001600160401b031685529382019390820190600101615dde565b5092979650505050505050565b80820180821115613c0a57613c0a615c60565b600063ffffffff808316818103615e3c57615e3c615c60565b6001019392505050565b818352818160208501375060006020828401015260006020601f19601f840116840101905092915050565b6000610100808352615e858184018a615cfb565b90508281036020840152615e9a81888a615e46565b90508281036040840152615eaf818688615e46565b9150506157b5606083018463ffffffff815116825260208101516001600160401b0380821660208501528060408401511660408501525050606081015160608301526080810151151560808301525050565b60e080825281018490526000856101008301825b87811015615f43576001600160401b03615f2e846155a1565b16825260209283019290910190600101615f15565b5080925050508360208301526144c6604083018463ffffffff815116825260208101516001600160401b0380821660208501528060408401511660408501525050606081015160608301526080810151151560808301525050565b63ffffffff818116838216019080821115615c9657615c96615c60565b60c081526000615fce60c0830185615cfb565b9050614dfc602083018463ffffffff815116825260208101516001600160401b0380821660208501528060408401511660408501525050606081015160608301526080810151151560808301525050565b63ffffffff828116828216039080821115615c9657615c96615c60565b600063ffffffff82168061605257616052615c60565b6000190192915050565b60e08152600061606f60e0830187615cfb565b8281036020840152616082818688615e46565b9150506144c6604083018463ffffffff815116825260208101516001600160401b0380821660208501528060408401511660408501525050606081015160608301526080810151151560808301525050565b6040815260006160e8604083018587615e46565b9050826020830152949350505050565b8082028115828204841417613c0a57613c0a615c60565b634e487b7160e01b600052601260045260246000fd5b6000826161345761613461610f565b500490565b60006020828403121561614b57600080fd5b5051919050565b60006020828403121561616457600080fd5b8151614dfc816157c0565b60008261617e5761617e61610f565b500690565b60006001600160401b038084168061619d5761619d61610f565b92169190910492915050565b805160208083015191908110156161ca576000198160200360031b1b821691505b50919050565b60005b838110156161eb5781810151838201526020016161d3565b50506000910152565b600082516162068184602087016161d0565b9190910192915050565b602081526000825180602084015261622f8160408501602087016161d0565b601f01601f1916919091016040019291505056fe416464726573733a206c6f772d6c6576656c2064656c65676174652063616c6c206661696c6564a2646970667358221220dd97bc451cdf877ad76dbdd812db80cc602c2ccc91dd82ed54dbd7e9c7008d4964736f6c63430008120033",
  "linkReferences": {},
  "deployedLinkReferences": {}
}